{
  "contractName": "User",
  "abi": [
    {
      "inputs": [
        {
          "internalType": "address",
          "name": "_address",
          "type": "address"
        }
      ],
      "name": "getUserName",
      "outputs": [
        {
          "internalType": "string",
          "name": "username",
          "type": "string"
        }
      ],
      "stateMutability": "view",
      "type": "function",
      "constant": true
    },
    {
      "inputs": [
        {
          "internalType": "string",
          "name": "_name",
          "type": "string"
        },
        {
          "internalType": "string",
          "name": "_desc",
          "type": "string"
        },
        {
          "internalType": "string",
          "name": "_url",
          "type": "string"
        },
        {
          "internalType": "uint8",
          "name": "_bounty",
          "type": "uint8"
        },
        {
          "internalType": "string",
          "name": "_cid",
          "type": "string"
        },
        {
          "internalType": "string",
          "name": "_ipfsURL",
          "type": "string"
        }
      ],
      "name": "createCourse",
      "outputs": [],
      "stateMutability": "nonpayable",
      "type": "function"
    },
    {
      "inputs": [
        {
          "internalType": "uint8",
          "name": "courseID",
          "type": "uint8"
        }
      ],
      "name": "fetchAssessmentQuestions",
      "outputs": [
        {
          "internalType": "string",
          "name": "ipfsURL",
          "type": "string"
        }
      ],
      "stateMutability": "view",
      "type": "function",
      "constant": true
    },
    {
      "inputs": [],
      "name": "fetchCourses",
      "outputs": [
        {
          "components": [
            {
              "internalType": "uint8",
              "name": "id",
              "type": "uint8"
            },
            {
              "internalType": "string",
              "name": "name",
              "type": "string"
            },
            {
              "internalType": "string",
              "name": "desc",
              "type": "string"
            },
            {
              "internalType": "address",
              "name": "owner",
              "type": "address"
            },
            {
              "internalType": "string",
              "name": "url",
              "type": "string"
            },
            {
              "internalType": "uint8",
              "name": "bounty",
              "type": "uint8"
            },
            {
              "internalType": "string",
              "name": "cid",
              "type": "string"
            },
            {
              "internalType": "string",
              "name": "ipfsURL",
              "type": "string"
            }
          ],
          "internalType": "struct User.Course[]",
          "name": "courseList",
          "type": "tuple[]"
        }
      ],
      "stateMutability": "view",
      "type": "function",
      "constant": true
    },
    {
      "inputs": [],
      "name": "fetchIncompleteCourses",
      "outputs": [
        {
          "components": [
            {
              "internalType": "uint8",
              "name": "id",
              "type": "uint8"
            },
            {
              "internalType": "string",
              "name": "name",
              "type": "string"
            },
            {
              "internalType": "string",
              "name": "desc",
              "type": "string"
            },
            {
              "internalType": "address",
              "name": "owner",
              "type": "address"
            },
            {
              "internalType": "string",
              "name": "url",
              "type": "string"
            },
            {
              "internalType": "uint8",
              "name": "bounty",
              "type": "uint8"
            },
            {
              "internalType": "string",
              "name": "cid",
              "type": "string"
            },
            {
              "internalType": "string",
              "name": "ipfsURL",
              "type": "string"
            }
          ],
          "internalType": "struct User.Course[]",
          "name": "",
          "type": "tuple[]"
        }
      ],
      "stateMutability": "view",
      "type": "function",
      "constant": true
    },
    {
      "inputs": [],
      "name": "fetchCompletedCourses",
      "outputs": [
        {
          "components": [
            {
              "internalType": "uint8",
              "name": "id",
              "type": "uint8"
            },
            {
              "internalType": "string",
              "name": "name",
              "type": "string"
            },
            {
              "internalType": "string",
              "name": "desc",
              "type": "string"
            },
            {
              "internalType": "address",
              "name": "owner",
              "type": "address"
            },
            {
              "internalType": "string",
              "name": "url",
              "type": "string"
            },
            {
              "internalType": "uint8",
              "name": "bounty",
              "type": "uint8"
            },
            {
              "internalType": "string",
              "name": "cid",
              "type": "string"
            },
            {
              "internalType": "string",
              "name": "ipfsURL",
              "type": "string"
            }
          ],
          "internalType": "struct User.Course[]",
          "name": "",
          "type": "tuple[]"
        }
      ],
      "stateMutability": "view",
      "type": "function",
      "constant": true
    },
    {
      "inputs": [
        {
          "internalType": "uint8",
          "name": "_courseId",
          "type": "uint8"
        }
      ],
      "name": "completeCourse",
      "outputs": [
        {
          "internalType": "string",
          "name": "courseUrl",
          "type": "string"
        }
      ],
      "stateMutability": "nonpayable",
      "type": "function"
    },
    {
      "inputs": [
        {
          "internalType": "uint8",
          "name": "_courseId",
          "type": "uint8"
        }
      ],
      "name": "getCourseStatus",
      "outputs": [
        {
          "internalType": "string",
          "name": "courseStatus",
          "type": "string"
        }
      ],
      "stateMutability": "view",
      "type": "function",
      "constant": true
    },
    {
      "inputs": [
        {
          "internalType": "address",
          "name": "_employeeAddress",
          "type": "address"
        }
      ],
      "name": "getTotalCourseBountyValue",
      "outputs": [
        {
          "internalType": "uint8",
          "name": "totalBountyValue",
          "type": "uint8"
        }
      ],
      "stateMutability": "view",
      "type": "function",
      "constant": true
    },
    {
      "inputs": [
        {
          "internalType": "address",
          "name": "user",
          "type": "address"
        }
      ],
      "name": "getUserType",
      "outputs": [
        {
          "internalType": "uint256",
          "name": "",
          "type": "uint256"
        }
      ],
      "stateMutability": "view",
      "type": "function",
      "constant": true
    },
    {
      "inputs": [],
      "name": "fetchEmployees",
      "outputs": [
        {
          "components": [
            {
              "internalType": "address",
              "name": "_address",
              "type": "address"
            },
            {
              "internalType": "string",
              "name": "username",
              "type": "string"
            },
            {
              "internalType": "enum User.Access",
              "name": "access",
              "type": "uint8"
            },
            {
              "internalType": "uint8",
              "name": "_totalBounty",
              "type": "uint8"
            },
            {
              "internalType": "bool",
              "name": "_isActive",
              "type": "bool"
            }
          ],
          "internalType": "struct User.Employee[]",
          "name": "",
          "type": "tuple[]"
        }
      ],
      "stateMutability": "view",
      "type": "function",
      "constant": true
    },
    {
      "inputs": [
        {
          "internalType": "address",
          "name": "_employeeAddress",
          "type": "address"
        }
      ],
      "name": "deleteEmployee",
      "outputs": [],
      "stateMutability": "nonpayable",
      "type": "function"
    },
    {
      "inputs": [
        {
          "internalType": "string",
          "name": "username",
          "type": "string"
        }
      ],
      "name": "createEmployer",
      "outputs": [],
      "stateMutability": "nonpayable",
      "type": "function"
    },
    {
      "inputs": [
        {
          "internalType": "address",
          "name": "_employeeAddress",
          "type": "address"
        },
        {
          "internalType": "string",
          "name": "_employeeName",
          "type": "string"
        }
      ],
      "name": "addEmployee",
      "outputs": [],
      "stateMutability": "nonpayable",
      "type": "function"
    },
    {
      "inputs": [
        {
          "internalType": "address",
          "name": "_employeeAddress",
          "type": "address"
        }
      ],
      "name": "changeAccess",
      "outputs": [],
      "stateMutability": "nonpayable",
      "type": "function"
    },
    {
      "inputs": [
        {
          "internalType": "uint8",
          "name": "numOfPerfCount",
          "type": "uint8"
        }
      ],
      "name": "getTopPerformers",
      "outputs": [
        {
          "components": [
            {
              "internalType": "address",
              "name": "_address",
              "type": "address"
            },
            {
              "internalType": "string",
              "name": "username",
              "type": "string"
            },
            {
              "internalType": "enum User.Access",
              "name": "access",
              "type": "uint8"
            },
            {
              "internalType": "uint8",
              "name": "_totalBounty",
              "type": "uint8"
            },
            {
              "internalType": "bool",
              "name": "_isActive",
              "type": "bool"
            }
          ],
          "internalType": "struct User.Employee[]",
          "name": "",
          "type": "tuple[]"
        }
      ],
      "stateMutability": "view",
      "type": "function",
      "constant": true
    },
    {
      "inputs": [],
      "name": "loadTestData",
      "outputs": [],
      "stateMutability": "nonpayable",
      "type": "function"
    }
  ],
  "bytecode": "0x608060405234801561001057600080fd5b506152d3806100206000396000f3fe608060405234801561001057600080fd5b5060043610610138576000357c010000000000000000000000000000000000000000000000000000000090048063a502e808116100cf578063d84f55ee1161009e578063e3bcac5f11610083578063e3bcac5f1461026d578063f1518b9714610280578063f403688a1461028857600080fd5b8063d84f55ee14610252578063da45dcb11461026557600080fd5b8063a502e80814610211578063b22c573f14610224578063c1166b2b1461022c578063c95d75f01461023f57600080fd5b80636e7c4ab11161010b5780636e7c4ab1146101a357806371a48688146101b857806379d4f09a146101dd5780638b3f863f146101f057600080fd5b80630a67a48d1461013d578063434df7c51461015b578063553d9ee21461016e5780635f1b1b601461018e575b600080fd5b61014561029b565b6040516101529190614a9f565b60405180910390f35b610145610169366004614b85565b61097d565b61018161017c366004614b85565b610d84565b6040516101529190614ba7565b6101966112a6565b6040516101529190614bba565b6101b66101b1366004614ce6565b6116f8565b005b6101cb6101c6366004614ce6565b611aed565b60405160ff9091168152602001610152565b6101b66101eb366004614dbd565b611f33565b6102036101fe366004614ce6565b612207565b604051908152602001610152565b6101b661021f366004614e9e565b612266565b6101b66126a0565b61018161023a366004614b85565b6127e2565b6101b661024d366004614eec565b612dc9565b610181610260366004614ce6565b612f12565b610196612fbe565b61018161027b366004614b85565b613408565b6101966137f8565b6101b6610296366004614ce6565b613bb8565b3360009081526005602052604090205460609060ff16610342576040517f08c379a000000000000000000000000000000000000000000000000000000000815260206004820152602660248201527f4f6e6c7920616e20456d706c6f7965722063616e206d616b652074686973207260448201527f657175657374000000000000000000000000000000000000000000000000000060648201526084015b60405180910390fd5b3360009081526003602052604081205474010000000000000000000000000000000000000000900460ff1690606090805b8360ff168160ff161015610640573360009081526004602052604081208161039c846001614f58565b60ff1681526020808201929092526040908101600020815160a081019092528054600160a060020a0316825260018101805492939192918401916103df90614f7d565b80601f016020809104026020016040519081016040528092919081815260200182805461040b90614f7d565b80156104585780601f1061042d57610100808354040283529160200191610458565b820191906000526020600020905b81548152906001019060200180831161043b57829003601f168201915b5050509183525050600282015460209091019060ff16600181111561047f5761047f614a70565b600181111561049057610490614a70565b81526002919091015460ff6101008204811660208401526201000090910416151560409091015260808101519091501561062d57336000908152600460205260408120906104df846001614f58565b60ff1681526020808201929092526040908101600020815160a081019092528054600160a060020a03168252600181018054929391929184019161052290614f7d565b80601f016020809104026020016040519081016040528092919081815260200182805461054e90614f7d565b801561059b5780601f106105705761010080835404028352916020019161059b565b820191906000526020600020905b81548152906001019060200180831161057e57829003601f168201915b5050509183525050600282015460209091019060ff1660018111156105c2576105c2614a70565b60018111156105d3576105d3614a70565b81526002919091015460ff610100820481166020840152620100009091048116151560409092019190915285518691851690811061061357610613614fd1565b6020026020010181905250828061062990615000565b9350505b508061063881615000565b915050610373565b506000606060005b84518160ff161015610973573360009081526004602052604081208161066f846001614f58565b60ff1681526020808201929092526040908101600020815160a081019092528054600160a060020a0316825260018101805492939192918401916106b290614f7d565b80601f01602080910402602001604051908101604052809291908181526020018280546106de90614f7d565b801561072b5780601f106107005761010080835404028352916020019161072b565b820191906000526020600020905b81548152906001019060200180831161070e57829003601f168201915b5050509183525050600282015460209091019060ff16600181111561075257610752614a70565b600181111561076357610763614a70565b81526002919091015460ff6101008204811660208401526201000090910416151560409091015260808101519091501561096057336000908152600460205260408120906107b2846001614f58565b60ff1681526020808201929092526040908101600020815160a081019092528054600160a060020a0316825260018101805492939192918401916107f590614f7d565b80601f016020809104026020016040519081016040528092919081815260200182805461082190614f7d565b801561086e5780601f106108435761010080835404028352916020019161086e565b820191906000526020600020905b81548152906001019060200180831161085157829003601f168201915b5050509183525050600282015460209091019060ff16600181111561089557610895614a70565b60018111156108a6576108a6614a70565b81526002919091015460ff61010082048116602084015262010000909104811615156040909201919091528451859187169081106108e6576108e6614fd1565b60200260200101819052506002600033600160a060020a0316600160a060020a0316815260200190815260200160002060020160019054906101000a900460ff16838560ff168151811061093c5761093c614fd1565b602090810291909101015160ff9091166060909101528361095c81615000565b9450505b508061096b81615000565b915050610648565b5095945050505050565b33600090815260066020526040902054606090819060ff1615610a16573360009081526020818152604080832054600160a060020a03168352600182529182902080548351818402810184019094528084529091830182828015610a0a57602002820191906000526020600020905b8154600160a060020a031681526001909101906020018083116109ec575b50505050509050610a95565b3360009081526005602052604090205460ff1615610a95573360009081526001602090815260409182902080548351818402810184019094528084529091830182828015610a8d57602002820191906000526020600020905b8154600160a060020a03168152600190910190602001808311610a6f575b505050505090505b606060005b82518160ff161015610c73576000610acd848360ff1681518110610ac057610ac0614fd1565b6020026020010151611aed565b905060ff811615610c605760026000858460ff1681518110610af157610af1614fd1565b6020026020010151600160a060020a0316600160a060020a031681526020019081526020016000206040518060a00160405290816000820160009054906101000a9004600160a060020a0316600160a060020a0316600160a060020a03168152602001600182018054610b6390614f7d565b80601f0160208091040260200160405190810160405280929190818152602001828054610b8f90614f7d565b8015610bdc5780601f10610bb157610100808354040283529160200191610bdc565b820191906000526020600020905b815481529060010190602001808311610bbf57829003601f168201915b5050509183525050600282015460209091019060ff166001811115610c0357610c03614a70565b6001811115610c1457610c14614a70565b81526002919091015460ff6101008204811660208401526201000090910481161515604090920191909152845185918516908110610c5457610c54614fd1565b60200260200101819052505b5080610c6b81615000565b915050610a9a565b50600181511115610c9757610c978160018351610c909190615020565b6000613cde565b60ff8416610ca457600393505b600080606060005b84518160ff161015610d79578260ff16858260ff1681518110610cd157610cd1614fd1565b60200260200101516060015160ff1614610d06578760ff168460ff161415610cf857610d79565b83610d0281615000565b9450505b848160ff1681518110610d1b57610d1b614fd1565b6020026020010151828260ff1681518110610d3857610d38614fd1565b6020026020010181905250848160ff1681518110610d5857610d58614fd1565b60200260200101516060015192508080610d7190615000565b915050610cac565b509695505050505050565b336000908152600960209081526040808320805482518185028101850190935280835260609493849084015b828210156110f557600084815260209081902060408051610100810190915260088502909101805460ff1682526001810180549293919291840191610df490614f7d565b80601f0160208091040260200160405190810160405280929190818152602001828054610e2090614f7d565b8015610e6d5780601f10610e4257610100808354040283529160200191610e6d565b820191906000526020600020905b815481529060010190602001808311610e5057829003601f168201915b50505050508152602001600282018054610e8690614f7d565b80601f0160208091040260200160405190810160405280929190818152602001828054610eb290614f7d565b8015610eff5780601f10610ed457610100808354040283529160200191610eff565b820191906000526020600020905b815481529060010190602001808311610ee257829003601f168201915b50505091835250506003820154600160a060020a03166020820152600482018054604090920191610f2f90614f7d565b80601f0160208091040260200160405190810160405280929190818152602001828054610f5b90614f7d565b8015610fa85780601f10610f7d57610100808354040283529160200191610fa8565b820191906000526020600020905b815481529060010190602001808311610f8b57829003601f168201915b5050509183525050600582015460ff166020820152600682018054604090920191610fd290614f7d565b80601f0160208091040260200160405190810160405280929190818152602001828054610ffe90614f7d565b801561104b5780601f106110205761010080835404028352916020019161104b565b820191906000526020600020905b81548152906001019060200180831161102e57829003601f168201915b5050505050815260200160078201805461106490614f7d565b80601f016020809104026020016040519081016040528092919081815260200182805461109090614f7d565b80156110dd5780601f106110b2576101008083540402835291602001916110dd565b820191906000526020600020905b8154815290600101906020018083116110c057829003601f168201915b50505050508152505081526020019060010190610db0565b505050509050606060005b82518160ff16101561129e578460ff16838260ff168151811061112557611125614fd1565b60200260200101516000015160ff16141561128c57336000908152600a6020526040812084518290869060ff861690811061116257611162614fd1565b6020908102919091018101515160ff908116835290820192909252604001600090812054909116915081600281111561119d5761119d614a70565b14156111e0576040518060400160405280600b81526020017f4e4f545f53544152544544000000000000000000000000000000000000000000815250925061128a565b60018160028111156111f4576111f4614a70565b1415611237576040518060400160405280600b81526020017f494e5f50524f4752455353000000000000000000000000000000000000000000815250925061128a565b600281600281111561124b5761124b614a70565b141561128a576040518060400160405280600981526020017f434f4d504c45544544000000000000000000000000000000000000000000000081525092505b505b8061129681615000565b915050611100565b509392505050565b336000908152600960209081526040808320805482518185028101850190935280835260609493849084015b8282101561161757600084815260209081902060408051610100810190915260088502909101805460ff168252600181018054929391929184019161131690614f7d565b80601f016020809104026020016040519081016040528092919081815260200182805461134290614f7d565b801561138f5780601f106113645761010080835404028352916020019161138f565b820191906000526020600020905b81548152906001019060200180831161137257829003601f168201915b505050505081526020016002820180546113a890614f7d565b80601f01602080910402602001604051908101604052809291908181526020018280546113d490614f7d565b80156114215780601f106113f657610100808354040283529160200191611421565b820191906000526020600020905b81548152906001019060200180831161140457829003601f168201915b50505091835250506003820154600160a060020a0316602082015260048201805460409092019161145190614f7d565b80601f016020809104026020016040519081016040528092919081815260200182805461147d90614f7d565b80156114ca5780601f1061149f576101008083540402835291602001916114ca565b820191906000526020600020905b8154815290600101906020018083116114ad57829003601f168201915b5050509183525050600582015460ff1660208201526006820180546040909201916114f490614f7d565b80601f016020809104026020016040519081016040528092919081815260200182805461152090614f7d565b801561156d5780601f106115425761010080835404028352916020019161156d565b820191906000526020600020905b81548152906001019060200180831161155057829003601f168201915b5050505050815260200160078201805461158690614f7d565b80601f01602080910402602001604051908101604052809291908181526020018280546115b290614f7d565b80156115ff5780601f106115d4576101008083540402835291602001916115ff565b820191906000526020600020905b8154815290600101906020018083116115e257829003601f168201915b505050505081525050815260200190600101906112d2565b50505050905060606000805b83518160ff1610156116ef57336000908152600a60205260408120855160029290879060ff861690811061165957611659614fd1565b6020908102919091018101515160ff9081168352908201929092526040016000205416600281111561168d5761168d614a70565b146116dd57838160ff16815181106116a7576116a7614fd1565b6020026020010151838360ff16815181106116c4576116c4614fd1565b60209081029190910101526116da826001614f58565b91505b806116e781615000565b915050611623565b50909392505050565b3360009081526005602052604090205460ff16611797576040517f08c379a000000000000000000000000000000000000000000000000000000000815260206004820152602660248201527f4f6e6c7920616e20456d706c6f7965722063616e206d616b652074686973207260448201527f65717565737400000000000000000000000000000000000000000000000000006064820152608401610339565b3360009081526003602052604081205474010000000000000000000000000000000000000000900460ff16905b8160ff168160ff161015611aca57336000908152600460205260408120816117ed846001614f58565b60ff1681526020808201929092526040908101600020815160a081019092528054600160a060020a03168252600181018054929391929184019161183090614f7d565b80601f016020809104026020016040519081016040528092919081815260200182805461185c90614f7d565b80156118a95780601f1061187e576101008083540402835291602001916118a9565b820191906000526020600020905b81548152906001019060200180831161188c57829003601f168201915b5050509183525050600282015460209091019060ff1660018111156118d0576118d0614a70565b60018111156118e1576118e1614a70565b81526002919091015460ff610100820481166020840152620100009091041615156040909101528051909150600160a060020a039081169085161415611ab7576000608082018190523381526004602052604081208291611943856001614f58565b60ff1681526020808201929092526040016000208251815473ffffffffffffffffffffffffffffffffffffffff1916600160a060020a03909116178155828201518051919261199a92600185019290910190614993565b50604082015160028201805460ff1916600183818111156119bd576119bd614a70565b02179055506060820151600291820180546080909401511515620100000262ff00001960ff909316610100029290921662ffff00199094169390931717909155600160a060020a03808616600090815260209283526040902083518154921673ffffffffffffffffffffffffffffffffffffffff199092169190911781558183015180518493611a54926001850192910190614993565b50604082015160028201805460ff191660018381811115611a7757611a77614a70565b02179055506060820151600290910180546080909301511515620100000262ff00001960ff909316610100029290921662ffff0019909316929092171790555b5080611ac281615000565b9150506117c4565b5050600160a060020a03166000908152600660205260409020805460ff19169055565b600160a060020a038116600090815260096020908152604080832080548251818502810185019093528083528493849084015b82821015611e6557600084815260209081902060408051610100810190915260088502909101805460ff1682526001810180549293919291840191611b6490614f7d565b80601f0160208091040260200160405190810160405280929190818152602001828054611b9090614f7d565b8015611bdd5780601f10611bb257610100808354040283529160200191611bdd565b820191906000526020600020905b815481529060010190602001808311611bc057829003601f168201915b50505050508152602001600282018054611bf690614f7d565b80601f0160208091040260200160405190810160405280929190818152602001828054611c2290614f7d565b8015611c6f5780601f10611c4457610100808354040283529160200191611c6f565b820191906000526020600020905b815481529060010190602001808311611c5257829003601f168201915b50505091835250506003820154600160a060020a03166020820152600482018054604090920191611c9f90614f7d565b80601f0160208091040260200160405190810160405280929190818152602001828054611ccb90614f7d565b8015611d185780601f10611ced57610100808354040283529160200191611d18565b820191906000526020600020905b815481529060010190602001808311611cfb57829003601f168201915b5050509183525050600582015460ff166020820152600682018054604090920191611d4290614f7d565b80601f0160208091040260200160405190810160405280929190818152602001828054611d6e90614f7d565b8015611dbb5780601f10611d9057610100808354040283529160200191611dbb565b820191906000526020600020905b815481529060010190602001808311611d9e57829003601f168201915b50505050508152602001600782018054611dd490614f7d565b80601f0160208091040260200160405190810160405280929190818152602001828054611e0090614f7d565b8015611e4d5780601f10611e2257610100808354040283529160200191611e4d565b820191906000526020600020905b815481529060010190602001808311611e3057829003601f168201915b50505050508152505081526020019060010190611b20565b5050505090506000915060005b81518160ff161015611f2c57600160a060020a0384166000908152600a60205260408120835160029290859060ff8616908110611eb157611eb1614fd1565b6020908102919091018101515160ff90811683529082019290925260400160002054166002811115611ee557611ee5614a70565b1415611f1a57818160ff1681518110611f0057611f00614fd1565b602002602001015160a0015183611f179190614f58565b92505b80611f2481615000565b915050611e72565b5050919050565b855115801590611f435750835115155b8015611f51575060ff831615155b611fdd576040517f08c379a000000000000000000000000000000000000000000000000000000000815260206004820152603b60248201527f4572726f723a204d616e6461746f727920696e666f726d6174696f6e20636f7560448201527f727365206e616d652f75726c2f626f756e7479206d697373696e6700000000006064820152608401610339565b3360009081526005602052604090205460ff1661207c576040517f08c379a000000000000000000000000000000000000000000000000000000000815260206004820152603d60248201527f41636365737320526573747269637465643a20436f75727365732063616e206260448201527f652063726561746564206f6e6c7920627920616e20656d706c6f7965720000006064820152608401610339565b604080516101008101825233600090815260086020529182205481906120a3906001615037565b60ff908116825260208083018b905260408084018b90523360608501819052608085018b905289841660a086015260c0850189905260e09094018790526000938452600880835290842080546001808201835591865294839020865195909202909101805460ff1916949093169390931782558381015180519495508594929361213593908501929190910190614993565b5060408201518051612151916002840191602090910190614993565b50606082015160038201805473ffffffffffffffffffffffffffffffffffffffff1916600160a060020a03909216919091179055608082015180516121a0916004840191602090910190614993565b5060a082015160058201805460ff191660ff90921691909117905560c082015180516121d6916006840191602090910190614993565b5060e082015180516121f2916007840191602090910190614993565b5050506121fe81613e75565b50505050505050565b600160a060020a03811660009081526005602052604081205460ff161561223057506001919050565b600160a060020a03821660009081526006602052604090205460ff161561225957506002919050565b506003919050565b919050565b3360009081526005602052604090205460ff16612305576040517f08c379a000000000000000000000000000000000000000000000000000000000815260206004820152602660248201527f4f6e6c7920616e20656d706c6f7965722063616e206d616b652074686973207260448201527f65717565737400000000000000000000000000000000000000000000000000006064820152608401610339565b600160a060020a03821660009081526006602052604090205460ff16156123ae576040517f08c379a000000000000000000000000000000000000000000000000000000000815260206004820152603160248201527f456d706c6f79656520697320616c72656164792072656769737465726564207460448201527f6f20616e206f7267616e697a6174696f6e0000000000000000000000000000006064820152608401610339565b6040805160a081018252600160a060020a038416815260208101839052600091810182815260006020808301829052600160409384018190523383526003909152918120549293509161241d917401000000000000000000000000000000000000000090910460ff1690614f58565b336000818152600360209081526040808320805460ff871674010000000000000000000000000000000000000000027fffffffffffffffffffffff00ffffffffffffffffffffffffffffffffffffffff909116179055600160a060020a03898116845260068352818420805460ff19166001908117909155848452828520805473ffffffffffffffffffffffffffffffffffffffff19908116909717905560028452919093208751815494169390941692909217835585810151805194955086946124ef938501929190910190614993565b50604082015160028201805460ff19166001838181111561251257612512614a70565b02179055506060820151600291909101805460809093015162ffff001990931661010060ff9384160262ff000019161762010000931515939093029290921790915533600090815260046020908152604080832093851683529281529190208351815473ffffffffffffffffffffffffffffffffffffffff1916600160a060020a0390911617815583820151805185936125b3926001850192910190614993565b50604082015160028201805460ff1916600183818111156125d6576125d6614a70565b02179055506060820151600290910180546080909301511515620100000262ff00001960ff909316610100029290921662ffff001990931692909217179055600160a060020a0384166000908152600760209081526040909120845161263e92860190614993565b50612648846140aa565b61269157336000908152600160208181526040832080549283018155835290912001805473ffffffffffffffffffffffffffffffffffffffff1916600160a060020a0386161790555b61269a8461418d565b50505050565b6126de6040518060400160405280600681526020017f476f6f676c650000000000000000000000000000000000000000000000000000815250612dc9565b6127346126f9604051806020016040528060008152506146d4565b6040518060400160405280600381526020017f52616d0000000000000000000000000000000000000000000000000000000000815250612266565b61278a61274f604051806020016040528060008152506146d4565b6040518060400160405280600581526020017f536179616e000000000000000000000000000000000000000000000000000000815250612266565b6127e06127a5604051806020016040528060008152506146d4565b6040518060400160405280600781526020017f4b61757368696b00000000000000000000000000000000000000000000000000815250612266565b565b3360009081526006602052604090205460609060ff16612884576040517f08c379a000000000000000000000000000000000000000000000000000000000815260206004820152602660248201527f4f6e6c7920616e20656d706c6f7965652063616e206d616b652074686973207260448201527f65717565737400000000000000000000000000000000000000000000000000006064820152608401610339565b33600090815260096020908152604080832080548251818502810185019093528083529192909190849084015b82821015612bf657600084815260209081902060408051610100810190915260088502909101805460ff16825260018101805492939192918401916128f590614f7d565b80601f016020809104026020016040519081016040528092919081815260200182805461292190614f7d565b801561296e5780601f106129435761010080835404028352916020019161296e565b820191906000526020600020905b81548152906001019060200180831161295157829003601f168201915b5050505050815260200160028201805461298790614f7d565b80601f01602080910402602001604051908101604052809291908181526020018280546129b390614f7d565b8015612a005780601f106129d557610100808354040283529160200191612a00565b820191906000526020600020905b8154815290600101906020018083116129e357829003601f168201915b50505091835250506003820154600160a060020a03166020820152600482018054604090920191612a3090614f7d565b80601f0160208091040260200160405190810160405280929190818152602001828054612a5c90614f7d565b8015612aa95780601f10612a7e57610100808354040283529160200191612aa9565b820191906000526020600020905b815481529060010190602001808311612a8c57829003601f168201915b5050509183525050600582015460ff166020820152600682018054604090920191612ad390614f7d565b80601f0160208091040260200160405190810160405280929190818152602001828054612aff90614f7d565b8015612b4c5780601f10612b2157610100808354040283529160200191612b4c565b820191906000526020600020905b815481529060010190602001808311612b2f57829003601f168201915b50505050508152602001600782018054612b6590614f7d565b80601f0160208091040260200160405190810160405280929190818152602001828054612b9190614f7d565b8015612bde5780601f10612bb357610100808354040283529160200191612bde565b820191906000526020600020905b815481529060010190602001808311612bc157829003601f168201915b505050505081525050815260200190600101906128b1565b50505050905060005b81518160ff161015612db2578360ff16828260ff1681518110612c2457612c24614fd1565b60200260200101516000015160ff16148015612c995750336000908152600a6020526040812083518290859060ff8616908110612c6357612c63614fd1565b6020908102919091018101515160ff90811683529082019290925260400160002054166002811115612c9757612c97614a70565b145b15612da057336000908152600a60205260408120835160029290859060ff8616908110612cc857612cc8614fd1565b6020908102919091018101515160ff168252810191909152604001600020805460ff19166001836002811115612d0057612d00614a70565b0217905550818160ff1681518110612d1a57612d1a614fd1565b60209081029190910181015160a001513360009081526002928390526040902090910154612d509190610100900460ff16614f58565b33600090815260026020819052604090912001805461ff00191661010060ff93841602179055825183918316908110612d8b57612d8b614fd1565b60200260200101516080015192505050919050565b80612daa81615000565b915050612bff565b505060408051602081019091526000815292915050565b3360009081526005602052604090205460ff1615612e69576040517f08c379a000000000000000000000000000000000000000000000000000000000815260206004820152602960248201527f596f752061726520616c7265616479207265676973746572656420617320616e60448201527f20456d706c6f79657200000000000000000000000000000000000000000000006064820152608401610339565b60408051808201825233808252600060208084018281529282526003815284822084518154945160ff1674010000000000000000000000000000000000000000027fffffffffffffffffffffff000000000000000000000000000000000000000000909516600160a060020a0391909116179390931790925560058252838120805460ff19166001179055600782529290922083519192612f0d9290850190614993565b505050565b600160a060020a0381166000908152600760205260409020805460609190612f3990614f7d565b80601f0160208091040260200160405190810160405280929190818152602001828054612f6590614f7d565b8015612fb25780601f10612f8757610100808354040283529160200191612fb2565b820191906000526020600020905b815481529060010190602001808311612f9557829003601f168201915b50505050509050919050565b336000908152600960209081526040808320805482518185028101850190935280835260609493849084015b8282101561332f57600084815260209081902060408051610100810190915260088502909101805460ff168252600181018054929391929184019161302e90614f7d565b80601f016020809104026020016040519081016040528092919081815260200182805461305a90614f7d565b80156130a75780601f1061307c576101008083540402835291602001916130a7565b820191906000526020600020905b81548152906001019060200180831161308a57829003601f168201915b505050505081526020016002820180546130c090614f7d565b80601f01602080910402602001604051908101604052809291908181526020018280546130ec90614f7d565b80156131395780601f1061310e57610100808354040283529160200191613139565b820191906000526020600020905b81548152906001019060200180831161311c57829003601f168201915b50505091835250506003820154600160a060020a0316602082015260048201805460409092019161316990614f7d565b80601f016020809104026020016040519081016040528092919081815260200182805461319590614f7d565b80156131e25780601f106131b7576101008083540402835291602001916131e2565b820191906000526020600020905b8154815290600101906020018083116131c557829003601f168201915b5050509183525050600582015460ff16602082015260068201805460409092019161320c90614f7d565b80601f016020809104026020016040519081016040528092919081815260200182805461323890614f7d565b80156132855780601f1061325a57610100808354040283529160200191613285565b820191906000526020600020905b81548152906001019060200180831161326857829003601f168201915b5050505050815260200160078201805461329e90614f7d565b80601f01602080910402602001604051908101604052809291908181526020018280546132ca90614f7d565b80156133175780601f106132ec57610100808354040283529160200191613317565b820191906000526020600020905b8154815290600101906020018083116132fa57829003601f168201915b50505050508152505081526020019060010190612fea565b50505050905060606000805b83518160ff1610156116ef57336000908152600a60205260408120855160029290879060ff861690811061337157613371614fd1565b6020908102919091018101515160ff908116835290820192909252604001600020541660028111156133a5576133a5614a70565b14156133f657838160ff16815181106133c0576133c0614fd1565b6020026020010151838360ff16815181106133dd576133dd614fd1565b60209081029190910101526133f3826001614f58565b91505b8061340081615000565b91505061333b565b336000908152600960209081526040808320805482518185028101850190935280835260609493849084015b8282101561377957600084815260209081902060408051610100810190915260088502909101805460ff168252600181018054929391929184019161347890614f7d565b80601f01602080910402602001604051908101604052809291908181526020018280546134a490614f7d565b80156134f15780601f106134c6576101008083540402835291602001916134f1565b820191906000526020600020905b8154815290600101906020018083116134d457829003601f168201915b5050505050815260200160028201805461350a90614f7d565b80601f016020809104026020016040519081016040528092919081815260200182805461353690614f7d565b80156135835780601f1061355857610100808354040283529160200191613583565b820191906000526020600020905b81548152906001019060200180831161356657829003601f168201915b50505091835250506003820154600160a060020a031660208201526004820180546040909201916135b390614f7d565b80601f01602080910402602001604051908101604052809291908181526020018280546135df90614f7d565b801561362c5780601f106136015761010080835404028352916020019161362c565b820191906000526020600020905b81548152906001019060200180831161360f57829003601f168201915b5050509183525050600582015460ff16602082015260068201805460409092019161365690614f7d565b80601f016020809104026020016040519081016040528092919081815260200182805461368290614f7d565b80156136cf5780601f106136a4576101008083540402835291602001916136cf565b820191906000526020600020905b8154815290600101906020018083116136b257829003601f168201915b505050505081526020016007820180546136e890614f7d565b80601f016020809104026020016040519081016040528092919081815260200182805461371490614f7d565b80156137615780601f1061373657610100808354040283529160200191613761565b820191906000526020600020905b81548152906001019060200180831161374457829003601f168201915b50505050508152505081526020019060010190613434565b50505050905060005b81518160ff161015611f2c578360ff16828260ff16815181106137a7576137a7614fd1565b60200260200101516000015160ff1614156137e657818160ff16815181106137d1576137d1614fd1565b602002602001015160e0015192505050919050565b806137f081615000565b915050613782565b33600090815260056020526040902054606090819060ff1615613b8e5733600090815260086020908152604080832080548251818502810185019093528083529193909284015b82821015613b8457600084815260209081902060408051610100810190915260088502909101805460ff168252600181018054929391929184019161388390614f7d565b80601f01602080910402602001604051908101604052809291908181526020018280546138af90614f7d565b80156138fc5780601f106138d1576101008083540402835291602001916138fc565b820191906000526020600020905b8154815290600101906020018083116138df57829003601f168201915b5050505050815260200160028201805461391590614f7d565b80601f016020809104026020016040519081016040528092919081815260200182805461394190614f7d565b801561398e5780601f106139635761010080835404028352916020019161398e565b820191906000526020600020905b81548152906001019060200180831161397157829003601f168201915b50505091835250506003820154600160a060020a031660208201526004820180546040909201916139be90614f7d565b80601f01602080910402602001604051908101604052809291908181526020018280546139ea90614f7d565b8015613a375780601f10613a0c57610100808354040283529160200191613a37565b820191906000526020600020905b815481529060010190602001808311613a1a57829003601f168201915b5050509183525050600582015460ff166020820152600682018054604090920191613a6190614f7d565b80601f0160208091040260200160405190810160405280929190818152602001828054613a8d90614f7d565b8015613ada5780601f10613aaf57610100808354040283529160200191613ada565b820191906000526020600020905b815481529060010190602001808311613abd57829003601f168201915b50505050508152602001600782018054613af390614f7d565b80601f0160208091040260200160405190810160405280929190818152602001828054613b1f90614f7d565b8015613b6c5780601f10613b4157610100808354040283529160200191613b6c565b820191906000526020600020905b815481529060010190602001808311613b4f57829003601f168201915b5050505050815250508152602001906001019061383f565b5050505091505090565b3360009081526006602052604090205460ff161561226157613bae6112a6565b91505090565b5090565b3360009081526005602052604090205460ff16613c57576040517f08c379a000000000000000000000000000000000000000000000000000000000815260206004820152602660248201527f4f6e6c7920616e20656d706c6f7965722063616e206d616b652074686973207260448201527f65717565737400000000000000000000000000000000000000000000000000006064820152608401610339565b600160a060020a03811660009081526002602081905260408220015460ff1690816001811115613c8957613c89614a70565b1415613cb85750600160a060020a0316600090815260026020819052604090912001805460ff19166001179055565b50600160a060020a0316600090815260026020819052604090912001805460ff19169055565b818180821415613cef575050505050565b6000856002613cfe878761504f565b613d0891906150c3565b613d129087615134565b81518110613d2257613d22614fd1565b60200260200101516060015160ff1690505b818312613e47575b80868481518110613d4f57613d4f614fd1565b60200260200101516060015160ff161015613d765782613d6e816151a8565b935050613d3c565b858281518110613d8857613d88614fd1565b60200260200101516060015160ff16811015613db05781613da8816151e2565b925050613d76565b818312613e4257858381518110613dc957613dc9614fd1565b6020026020010151868381518110613de357613de3614fd1565b6020026020010151878481518110613dfd57613dfd614fd1565b60200260200101888681518110613e1657613e16614fd1565b6020026020010182905282905250508280613e30906151a8565b9350508180613e3e906151e2565b9250505b613d34565b81851315613e5a57613e5a868684613cde565b83831315613e6d57613e6d868486613cde565b505050505050565b33600090815260016020908152604080832080548251818502810185019093528083529192909190830182828015613ed657602002820191906000526020600020905b8154600160a060020a03168152600190910190602001808311613eb8575b5050505050905060005b81518160ff161015612f0d5760096000838360ff1681518110613f0557613f05614fd1565b602090810291909101810151600160a060020a03168252818101929092526040016000908120805460018082018355918352918390208651600890930201805460ff191660ff9093169290921782558583015180518794613f6a938501920190614993565b5060408201518051613f86916002840191602090910190614993565b50606082015160038201805473ffffffffffffffffffffffffffffffffffffffff1916600160a060020a0390921691909117905560808201518051613fd5916004840191602090910190614993565b5060a082015160058201805460ff191660ff90921691909117905560c0820151805161400b916006840191602090910190614993565b5060e08201518051614027916007840191602090910190614993565b5050506000600a6000848460ff168151811061404557614045614fd1565b602090810291909101810151600160a060020a031682528181019290925260409081016000908120875160ff1682529092529020805460ff1916600183600281111561409357614093614a70565b0217905550806140a281615000565b915050613ee0565b3360009081526001602090815260408083208054825181850281018501909352808352849383018282801561410857602002820191906000526020600020905b8154600160a060020a031681526001909101906020018083116140ea575b505050505090508051600014156141225750600092915050565b60005b81518160ff1610156141835783600160a060020a0316828260ff168151811061415057614150614fd1565b6020026020010151600160a060020a03161415614171575060019392505050565b8061417b81615000565b915050614125565b5060009392505050565b33600090815260086020908152604080832080548251818502810185019093528083529192909190849084015b828210156144ff57600084815260209081902060408051610100810190915260088502909101805460ff16825260018101805492939192918401916141fe90614f7d565b80601f016020809104026020016040519081016040528092919081815260200182805461422a90614f7d565b80156142775780601f1061424c57610100808354040283529160200191614277565b820191906000526020600020905b81548152906001019060200180831161425a57829003601f168201915b5050505050815260200160028201805461429090614f7d565b80601f01602080910402602001604051908101604052809291908181526020018280546142bc90614f7d565b80156143095780601f106142de57610100808354040283529160200191614309565b820191906000526020600020905b8154815290600101906020018083116142ec57829003601f168201915b50505091835250506003820154600160a060020a0316602082015260048201805460409092019161433990614f7d565b80601f016020809104026020016040519081016040528092919081815260200182805461436590614f7d565b80156143b25780601f10614387576101008083540402835291602001916143b2565b820191906000526020600020905b81548152906001019060200180831161439557829003601f168201915b5050509183525050600582015460ff1660208201526006820180546040909201916143dc90614f7d565b80601f016020809104026020016040519081016040528092919081815260200182805461440890614f7d565b80156144555780601f1061442a57610100808354040283529160200191614455565b820191906000526020600020905b81548152906001019060200180831161443857829003601f168201915b5050505050815260200160078201805461446e90614f7d565b80601f016020809104026020016040519081016040528092919081815260200182805461449a90614f7d565b80156144e75780601f106144bc576101008083540402835291602001916144e7565b820191906000526020600020905b8154815290600101906020018083116144ca57829003601f168201915b505050505081525050815260200190600101906141ba565b50505050905060005b81518160ff161015612f0d57600160a060020a03831660009081526009602052604090208251839060ff841690811061454357614543614fd1565b6020908102919091018101518254600180820185556000948552938390208251600890920201805460ff191660ff909216919091178155818301518051929491936145949392850192910190614993565b50604082015180516145b0916002840191602090910190614993565b50606082015160038201805473ffffffffffffffffffffffffffffffffffffffff1916600160a060020a03909216919091179055608082015180516145ff916004840191602090910190614993565b5060a082015160058201805460ff191660ff90921691909117905560c08201518051614635916006840191602090910190614993565b5060e08201518051614651916007840191602090910190614993565b505050600160a060020a0383166000908152600a6020526040812083518290859060ff861690811061468557614685614fd1565b6020908102919091018101515160ff168252810191909152604001600020805460ff191660018360028111156146bd576146bd614a70565b0217905550806146cc81615000565b915050614508565b60008181808060025b602a811015614988576146f26101008561521b565b935084818151811061470657614706614fd1565b60200101517f010000000000000000000000000000000000000000000000000000000000000090047f0100000000000000000000000000000000000000000000000000000000000000027f0100000000000000000000000000000000000000000000000000000000000000900460ff169250848160016147869190615037565b8151811061479657614796614fd1565b60200101517f010000000000000000000000000000000000000000000000000000000000000090047f0100000000000000000000000000000000000000000000000000000000000000027f0100000000000000000000000000000000000000000000000000000000000000900460ff169150606183600160a060020a03161015801561482c5750606683600160a060020a031611155b156148435761483c60578461524a565b92506148ae565b604183600160a060020a0316101580156148675750604683600160a060020a031611155b156148775761483c60378461524a565b603083600160a060020a03161015801561489b5750603983600160a060020a031611155b156148ae576148ab60308461524a565b92505b606182600160a060020a0316101580156148d25750606682600160a060020a031611155b156148e9576148e260578361524a565b9150614954565b604182600160a060020a03161015801561490d5750604682600160a060020a031611155b1561491d576148e260378361524a565b603082600160a060020a0316101580156149415750603982600160a060020a031611155b156149545761495160308361524a565b91505b8161496084601061521b565b61496a9190615272565b6149749085615272565b9350614981600282615037565b90506146dd565b509195945050505050565b82805461499f90614f7d565b90600052602060002090601f0160209004810192826149c15760008555614a07565b82601f106149da57805160ff1916838001178555614a07565b82800160010185558215614a07579182015b82811115614a075782518255916020019190600101906149ec565b50613bb49291505b80821115613bb45760008155600101614a0f565b6000815180845260005b81811015614a4957602081850181015186830182015201614a2d565b81811115614a5b576000602083870101525b50601f01601f19169290920160200192915050565b7f4e487b7100000000000000000000000000000000000000000000000000000000600052602160045260246000fd5b6020808252825182820181905260009190604090818501908084028601830187850186805b84811015614b6557603f198a8503018652825160a0600160a060020a03825116865289820151818b880152614afb82880182614a23565b9150508882015160028110614b37577f4e487b710000000000000000000000000000000000000000000000000000000085526021600452602485fd5b868a015260608281015160ff1690870152608091820151151591909501529487019491870191600101614ac4565b50919998505050505050505050565b803560ff8116811461226157600080fd5b600060208284031215614b9757600080fd5b614ba082614b74565b9392505050565b602081526000614ba06020830184614a23565b60208082528251828201819052600091906040908185019080840286018301878501865b83811015614cc157888303603f190185528151805160ff16845261010088820151818a870152614c1082870182614a23565b9150508782015185820389870152614c288282614a23565b915050606080830151614c4582880182600160a060020a03169052565b505060808083015186830382880152614c5e8382614a23565b9250505060a080830151614c768288018260ff169052565b505060c08083015186830382880152614c8f8382614a23565b9250505060e08083015192508582038187015250614cad8183614a23565b968901969450505090860190600101614bde565b509098975050505050505050565b8035600160a060020a038116811461226157600080fd5b600060208284031215614cf857600080fd5b614ba082614ccf565b7f4e487b7100000000000000000000000000000000000000000000000000000000600052604160045260246000fd5b600082601f830112614d4157600080fd5b813567ffffffffffffffff80821115614d5c57614d5c614d01565b604051601f8301601f19908116603f01168101908282118183101715614d8457614d84614d01565b81604052838152866020858801011115614d9d57600080fd5b836020870160208301376000602085830101528094505050505092915050565b60008060008060008060c08789031215614dd657600080fd5b863567ffffffffffffffff80821115614dee57600080fd5b614dfa8a838b01614d30565b97506020890135915080821115614e1057600080fd5b614e1c8a838b01614d30565b96506040890135915080821115614e3257600080fd5b614e3e8a838b01614d30565b9550614e4c60608a01614b74565b94506080890135915080821115614e6257600080fd5b614e6e8a838b01614d30565b935060a0890135915080821115614e8457600080fd5b50614e9189828a01614d30565b9150509295509295509295565b60008060408385031215614eb157600080fd5b614eba83614ccf565b9150602083013567ffffffffffffffff811115614ed657600080fd5b614ee285828601614d30565b9150509250929050565b600060208284031215614efe57600080fd5b813567ffffffffffffffff811115614f1557600080fd5b614f2184828501614d30565b949350505050565b7f4e487b7100000000000000000000000000000000000000000000000000000000600052601160045260246000fd5b600060ff821660ff84168060ff03821115614f7557614f75614f29565b019392505050565b600281046001821680614f9157607f821691505b60208210811415614fcb577f4e487b7100000000000000000000000000000000000000000000000000000000600052602260045260246000fd5b50919050565b7f4e487b7100000000000000000000000000000000000000000000000000000000600052603260045260246000fd5b600060ff821660ff81141561501757615017614f29565b60010192915050565b60008282101561503257615032614f29565b500390565b6000821982111561504a5761504a614f29565b500190565b6000808312837f80000000000000000000000000000000000000000000000000000000000000000183128115161561508957615089614f29565b837f7fffffffffffffffffffffffffffffffffffffffffffffffffffffffffffffff0183138116156150bd576150bd614f29565b50500390565b6000826150f9577f4e487b7100000000000000000000000000000000000000000000000000000000600052601260045260246000fd5b7f800000000000000000000000000000000000000000000000000000000000000082146000198414161561512f5761512f614f29565b500590565b6000808212827f7fffffffffffffffffffffffffffffffffffffffffffffffffffffffffffffff0384138115161561516e5761516e614f29565b827f80000000000000000000000000000000000000000000000000000000000000000384128116156151a2576151a2614f29565b50500190565b60007f80000000000000000000000000000000000000000000000000000000000000008214156151da576151da614f29565b506000190190565b60007f7fffffffffffffffffffffffffffffffffffffffffffffffffffffffffffffff82141561521457615214614f29565b5060010190565b6000600160a060020a038083168185168183048111821515161561524157615241614f29565b02949350505050565b6000600160a060020a038381169083168181101561526a5761526a614f29565b039392505050565b6000600160a060020a0380831681851680830382111561529457615294614f29565b0194935050505056fea264697066735822122025fbfe9ea99607ebd9dbb78f31f0bc10d0b7f03afd0a33e999f0a59ca0c6b62d64736f6c634300080a0033",
  "immutableReferences": {},
  "source": "// SPDX-License-Identifier: MIT OR Apache-2.0\r\npragma solidity ^0.8.0;\r\n\r\ninterface IERC20 {\r\n    function transfer(address recipient, uint256 amount)\r\n        external\r\n        returns (bool);\r\n}\r\n\r\ncontract User {\r\n    // Employee address => employerAddress\r\n    // Used when creating a new employee\r\n    mapping(address => address) private employee_Employer;\r\n\r\n    // Employer-Employees mapping\r\n    mapping(address => address[]) private employer_Employees;\r\n\r\n    // Employee address => Employee Struct\r\n    // Used when creating a new Employee\r\n    mapping(address => Employee) private employee_AccountDetails;\r\n\r\n    // Organization employerAddress => Organization\r\n    // Used when creating an Organization\r\n    mapping(address => Organization) private employer_Organization;\r\n\r\n    // Employer address => employeeId => employeeAddress\r\n    // Used when creating a new Employer\r\n    // mapping(address => mapping(uint8 => address)) private member_Organization;\r\n    mapping(address => mapping(uint8 => Employee)) private member_Organization;\r\n\r\n    // Employer address => bool\r\n    mapping(address => bool) private isEmployer;\r\n\r\n    // Employee address => bool\r\n    mapping(address => bool) private isEmployee;\r\n\r\n    // User address => username\r\n    mapping(address => string) private users;\r\n\r\n    // Courses employer creates\r\n    mapping(address => Course[]) private employerCourses;\r\n\r\n    // Courses employee subscribed to\r\n    mapping(address => Course[]) private employeeCourses;\r\n\r\n    // Status of courses employee had subscribed to\r\n    mapping(address => mapping(uint8 => EmployeeCourseStatus)) private employeeCourseStatus;\r\n\r\n    // Number of top performers to be determined\r\n    uint8 constant TOP_PERFORMERS_COUNT = 3;\r\n\r\n    // Minimum percentage required to be eligible for leaderboard\r\n    uint8 constant TOP_PERF_MIN_PERCENTAGE = 10;\r\n\r\n    /**\r\n     * Course details\r\n     */\r\n    struct Course {\r\n        uint8 id; \r\n        string name; \r\n        string desc;\r\n        address owner; \r\n        string url;\r\n        uint8 bounty;\r\n        string cid;\r\n        string ipfsURL;\r\n    }\r\n\r\n    // TODO Add course, delete course functions\r\n    // TODO Check for change in course status, emit an event on course completion that initiates streaming from employer to employee\r\n    // TODO Function to get all the learning courses added by employer\r\n    // TODO Employee address => List of courses enrolled and completed\r\n\r\n    enum Access {\r\n        Locked, // Locked by employer. Can't be unlocked by employee. No access to widrawal of funds.\r\n        Unlocked // Unlocked by employer. Can't be unlocked by employee. No access to widrawal of funds.\r\n    }\r\n\r\n    /**\r\n    * Employee course status\r\n    */\r\n    enum EmployeeCourseStatus {\r\n        NOT_STARTED,\r\n        IN_PROGRESS,\r\n        COMPLETED\r\n    }\r\n\r\n    struct Employee {\r\n        address _address; // the address of the employee\r\n        string username; // an identifier for the employee\r\n        Access access; // locked(0) or unlocked(1)\r\n        uint8 _totalBounty;\r\n        bool _isActive;\r\n    }\r\n\r\n    struct Organization {\r\n        address payable owner; // the owner of the Organization\r\n        // mapping(address => Employee) employee; // the employees of the organization\r\n        uint8 numOfEmployees; // The number of employees in the organization\r\n    }\r\n\r\n    /** \r\n     * @notice - This function is used to retrieve the username based on wallet address\r\n     * @param _address - The address of the user.\r\n     */\r\n    function getUserName(address _address) external view returns(string memory username){\r\n        return users[_address];\r\n    }\r\n\r\n    /**\r\n     * @notice - Creates course\r\n     *\r\n     * @param _name - name of the course\r\n     * @param _desc - description of the course\r\n     * @param _url - url of the course\r\n     * @param _bounty - bounty for the course\r\n     * @param _cid - cid of the course\r\n     */\r\n    function createCourse(string memory _name, string memory _desc, \r\n        string memory _url, uint8 _bounty, string memory _cid, string memory _ipfsURL) public {\r\n        require(\r\n            (bytes(_name).length != 0 && bytes(_url).length != 0 && _bounty != 0), \r\n        \"Error: Mandatory information course name/url/bounty missing\"\r\n        );\r\n\r\n        require(\r\n            isEmployer[msg.sender],\r\n            \"Access Restricted: Courses can be created only by an employer\"\r\n        );\r\n\r\n        Course memory course = Course({\r\n            id: uint8(employerCourses[msg.sender].length + 1),\r\n            name: _name,\r\n            desc: _desc,\r\n            owner: msg.sender,\r\n            url: _url,\r\n            bounty: _bounty,\r\n            cid: _cid,\r\n            ipfsURL: _ipfsURL\r\n        });\r\n        employerCourses[msg.sender].push(course);\r\n        subscribeCourse(course);\r\n    }\r\n\r\n    /**\r\n     * @notice - Fetch IPFS URL of course ID\r\n     *\r\n     * @param courseID - ID of the course\r\n     * @return ipfsURL - IPFS file URL\r\n     */\r\n    function fetchAssessmentQuestions(uint8 courseID) view public returns (string memory ipfsURL) {\r\n        Course[] memory coursesList = employeeCourses[msg.sender];\r\n        for (uint8 i = 0; i < coursesList.length; i++) {\r\n            if(coursesList[i].id == courseID) {\r\n                return coursesList[i].ipfsURL;\r\n            }\r\n        }\r\n    }\r\n\r\n    /**\r\n     * @notice - Fetch course list based on user type\r\n     *\r\n     * @return courseList - list of courses  \r\n     */\r\n    function fetchCourses() view public returns (Course[] memory courseList) {\r\n        Course[] memory courses;\r\n        if (isEmployer[msg.sender]) { //Employer\r\n            return employerCourses[msg.sender];\r\n        } else if (isEmployee[msg.sender]) { //Employee\r\n            return fetchIncompleteCourses();\r\n        } else {\r\n            return courses;\r\n        }\r\n    }\r\n\r\n\r\n    /**\r\n     * @notice - Fetch incompleted course list\r\n     *\r\n     * @return courseList - list of courses  \r\n     */\r\n    function fetchIncompleteCourses() view public returns (Course[] memory) {\r\n        Course[] memory coursesList = employeeCourses[msg.sender];\r\n        Course[] memory incompletedList;\r\n        uint8 counter = 0;\r\n        for (uint8 i = 0; i < coursesList.length; i++) {\r\n            if(employeeCourseStatus[msg.sender][coursesList[i].id] != EmployeeCourseStatus.COMPLETED) {\r\n                incompletedList[counter] = coursesList[i];\r\n                counter = counter + 1;\r\n            }\r\n        }\r\n        return incompletedList;\r\n    }\r\n\r\n\r\n    /**\r\n     * @notice - Fetch completed course list\r\n     *\r\n     * @return courseList - list of courses  \r\n     */\r\n    function fetchCompletedCourses() view public returns (Course[] memory) {\r\n        Course[] memory coursesList = employeeCourses[msg.sender];\r\n        Course[] memory completedList;\r\n        uint8 counter = 0;\r\n        for (uint8 i = 0; i < coursesList.length; i++) {\r\n            if(employeeCourseStatus[msg.sender][coursesList[i].id] == EmployeeCourseStatus.COMPLETED) {\r\n                completedList[counter] = coursesList[i];\r\n                counter = counter + 1;\r\n            }\r\n        }\r\n        return completedList;\r\n    }\r\n\r\n\r\n    /**\r\n     * @notice - Subscribe course\r\n     *\r\n     * @param _course - course\r\n     */\r\n    function subscribeCourse(Course memory _course) private {\r\n        address[] memory employees = employer_Employees[msg.sender];\r\n\r\n        // All newly added courses are subscribed to all employers by default\r\n        for (uint8 i = 0; i < employees.length; i++) {\r\n            employeeCourses[employees[i]].push(_course);\r\n            employeeCourseStatus[employees[i]][_course.id] = EmployeeCourseStatus.NOT_STARTED;\r\n        }\r\n    }\r\n\r\n\r\n    /**\r\n     * @notice - Subscribe course\r\n     */\r\n    function subscribeCourse(address _address) private {\r\n        Course[] memory courses = employerCourses[msg.sender];\r\n\r\n        // All newly added courses are subscribed to all employers by default\r\n        for (uint8 i = 0; i < courses.length; i++) {\r\n            employeeCourses[_address].push(courses[i]);\r\n            employeeCourseStatus[_address][courses[i].id] = EmployeeCourseStatus.NOT_STARTED;\r\n        }\r\n    }\r\n\r\n\r\n    /**\r\n     * @notice - Complete course\r\n     *\r\n     * @param _courseId - course ID\r\n     * @return courseUrl - course URL\r\n     */\r\n    function completeCourse(uint8 _courseId) public returns (string memory courseUrl) {\r\n        require(isEmployee[msg.sender], \"Only an employee can make this request\");\r\n\r\n        Course[] memory allCourses = employeeCourses[msg.sender];\r\n        for (uint8 i = 0; i < allCourses.length; i++) {\r\n            if (allCourses[i].id == _courseId && employeeCourseStatus[msg.sender][allCourses[i].id] == EmployeeCourseStatus.NOT_STARTED) {\r\n                employeeCourseStatus[msg.sender][allCourses[i].id] = EmployeeCourseStatus.COMPLETED;\r\n                employee_AccountDetails[msg.sender]._totalBounty = employee_AccountDetails[msg.sender]._totalBounty \r\n                                                                    + allCourses[i].bounty;\r\n                return allCourses[i].url;\r\n            }\r\n        }\r\n        return \"\";\r\n    }\r\n\r\n    /**\r\n     * @notice - Get course status\r\n     *\r\n     * @param _courseId - course ID\r\n     * @return courseStatus - course status\r\n     */\r\n    function getCourseStatus(uint8 _courseId) public view returns (string memory courseStatus) {\r\n        Course[] memory allCourses = employeeCourses[msg.sender];\r\n        string memory status;\r\n        for (uint8 i = 0; i < allCourses.length; i++) {\r\n            if (allCourses[i].id == _courseId) {\r\n                EmployeeCourseStatus cStatus = employeeCourseStatus[msg.sender][allCourses[i].id];\r\n                    if (cStatus == EmployeeCourseStatus.NOT_STARTED) {\r\n                        status = \"NOT_STARTED\";\r\n                    } else if (cStatus == EmployeeCourseStatus.IN_PROGRESS) {\r\n                        status = \"IN_PROGRESS\";\r\n                    } else if (cStatus == EmployeeCourseStatus.COMPLETED) {\r\n                        status = \"COMPLETED\";\r\n                    }\r\n            }\r\n        }\r\n        return status;\r\n    }\r\n    \r\n\r\n    /**\r\n     * @notice - Fetch total course bounty value\r\n     *\r\n     * @param _employeeAddress - employee address\r\n     * @return totalBountyValue - total bounty value\r\n     */\r\n    function getTotalCourseBountyValue(address _employeeAddress) public view returns (uint8 totalBountyValue){\r\n        Course[] memory courses = employeeCourses[_employeeAddress];\r\n        totalBountyValue = 0;\r\n        for(uint8 i = 0; i < courses.length; i++) {\r\n            if (employeeCourseStatus[_employeeAddress][courses[i].id] == EmployeeCourseStatus.COMPLETED) {\r\n                totalBountyValue = totalBountyValue + courses[i].bounty;\r\n            }\r\n        }\r\n        return totalBountyValue;\r\n    }\r\n\r\n\r\n    /** \r\n     * @notice - This function is used to determine the type of user\r\n     * 1 = employer. 2 = employee. 3 = unenrolled\r\n     * @param user - The address of the user.\r\n     */\r\n    function getUserType(address user) external view returns(uint256){\r\n        if(isEmployer[user]){\r\n            return 1;\r\n        }else if (isEmployee[user]){\r\n            return 2;\r\n        }else{\r\n            return 3;\r\n        }\r\n    }\r\n\r\n    /**\r\n     * @notice - This function is used to determine if the user is an employee of an organization.\r\n     */\r\n    function fetchEmployees() public view returns (Employee[] memory) {\r\n        require(isEmployer[msg.sender], \"Only an Employer can make this request\");\r\n\r\n        //determine how many employees the employer has\r\n        uint8 numOfEmployees = employer_Organization[msg.sender].numOfEmployees;\r\n        Employee[] memory employees;\r\n\r\n        // Determine number of active employees\r\n        uint8 noOfActiveEmps = 0;\r\n        for (uint8 index = 0; index < numOfEmployees; index++) {\r\n            Employee memory employee = member_Organization[msg.sender][index + 1];\r\n            if (employee._isActive) {\r\n                employees[index] = member_Organization[msg.sender][index + 1];\r\n                noOfActiveEmps++;\r\n            }\r\n        }\r\n\r\n        // Copy active employees to new array\r\n        uint8 counter = 0;\r\n        Employee[] memory result;\r\n        for (uint8 index = 0; index < employees.length; index++) {\r\n            Employee memory employee = member_Organization[msg.sender][index + 1];\r\n            if (employee._isActive) {\r\n                result[counter] = member_Organization[msg.sender][index + 1];\r\n                result[counter]._totalBounty = employee_AccountDetails[msg.sender]._totalBounty;\r\n                counter++;\r\n            }\r\n        }\r\n\r\n        return result;\r\n    }\r\n\r\n    /**\r\n     * @notice - This function is used to delete/make inactive an employee\r\n     */\r\n    function deleteEmployee(address _employeeAddress) public {\r\n        require(isEmployer[msg.sender], \"Only an Employer can make this request\");\r\n\r\n        uint8 numOfEmployees = employer_Organization[msg.sender].numOfEmployees;\r\n        for (uint8 index = 0; index < numOfEmployees; index++) {\r\n            Employee memory employee = member_Organization[msg.sender][index + 1];\r\n            if (employee._address == _employeeAddress) {\r\n                employee._isActive = false;\r\n                member_Organization[msg.sender][index + 1] = employee;\r\n                employee_AccountDetails[_employeeAddress] = employee;\r\n            }\r\n        }\r\n        isEmployee[_employeeAddress] = false;\r\n    }\r\n\r\n    /**\r\n     * @notice - This function is used to create a new employer/owner\r\n     */\r\n    function createEmployer(string memory username) public {\r\n        require(\r\n            !isEmployer[msg.sender],\r\n            \"You are already registered as an Employer\"\r\n        );\r\n\r\n        // create a new organization\r\n        Organization memory organization = Organization({\r\n            owner: payable(msg.sender),\r\n            numOfEmployees: 0\r\n        });\r\n        employer_Organization[msg.sender] = organization;\r\n        isEmployer[msg.sender] = true;\r\n        users[msg.sender]=username;\r\n    }\r\n\r\n    /**\r\n     * @notice - This function is used to add a employee to the organization owned by an employer.\r\n     * @param _employeeAddress - The address of the employee.\r\n     * @param _employeeName - The username of the employee.\r\n     */\r\n    function addEmployee(address _employeeAddress, string memory _employeeName) public {\r\n        require(isEmployer[msg.sender], \"Only an employer can make this request\");\r\n        require(!isEmployee[_employeeAddress], \"Employee is already registered to an organization\");\r\n        // Fetch the employee\r\n        Employee memory employee = Employee({\r\n            _address: _employeeAddress,\r\n            username: _employeeName,\r\n            access: Access.Locked,\r\n            _totalBounty: 0,\r\n            _isActive: true\r\n        });\r\n\r\n        // get next id number for the employee\r\n        uint8 employeeId = employer_Organization[msg.sender].numOfEmployees + 1;\r\n\r\n        // update employee count\r\n        employer_Organization[msg.sender].numOfEmployees = employeeId;\r\n\r\n        // update mappings\r\n        isEmployee[_employeeAddress] = true;\r\n        employee_Employer[_employeeAddress] = msg.sender;\r\n        employee_AccountDetails[_employeeAddress] = employee;\r\n        member_Organization[msg.sender][employeeId] = employee;\r\n        users[_employeeAddress]=_employeeName;\r\n\r\n        // Update employer-employees mapping\r\n        if (!isEmployeeAlreadyExist(_employeeAddress)) {\r\n            employer_Employees[msg.sender].push(_employeeAddress);\r\n        } \r\n\r\n        // Subscribe all courses to new employee\r\n        subscribeCourse(_employeeAddress);\r\n    }\r\n\r\n    /**\r\n     * @notice - Check if employee address already exist for the employer\r\n     *\r\n     * @param _employeeAddress - address of the employee\r\n     * @return - flag indicating if employee already present \r\n     */\r\n    function isEmployeeAlreadyExist(address _employeeAddress) private view returns(bool) {\r\n        address[] memory employees = employer_Employees[msg.sender];\r\n\r\n        if (employees.length == 0) { return false; }\r\n        for (uint8 i = 0; i < employees.length; i++) {\r\n            if (employees[i] == _employeeAddress) { return true; }\r\n        }\r\n        return false;\r\n    }\r\n\r\n    /**\r\n     * @notice - This function is used to change the access of an employee.\r\n     * @param _employeeAddress - The address of the employee.\r\n     */\r\n    function changeAccess(address _employeeAddress) public {\r\n        require(isEmployer[msg.sender], \"Only an employer can make this request\");\r\n\r\n        // current status\r\n        Access currentAccess = employee_AccountDetails[_employeeAddress].access;\r\n\r\n        // change the access of the employee\r\n        if (currentAccess == Access.Locked) {\r\n            employee_AccountDetails[_employeeAddress].access = Access.Unlocked;\r\n        } else {\r\n            employee_AccountDetails[_employeeAddress].access = Access.Locked;\r\n        }\r\n    }\r\n\r\n    /**\r\n     * @notice - Fetches top performers based on total completion percentage\r\n     */\r\n    function getTopPerformers(uint8 numOfPerfCount) public view returns (Employee[] memory){\r\n        address[] memory employeeAddesses;\r\n        if (isEmployee[msg.sender]){\r\n            employeeAddesses = employer_Employees[employee_Employer[msg.sender]];\r\n        } else if (isEmployer[msg.sender]) {\r\n            employeeAddesses = employer_Employees[msg.sender];\r\n        }\r\n            \r\n        Employee[] memory employees;\r\n        for(uint8 i = 0; i < employeeAddesses.length; i++) {\r\n            uint8 totalBountyVal = getTotalCourseBountyValue(employeeAddesses[i]);\r\n            // Only employees with minimum completion percentage is eligible\r\n            if (totalBountyVal > 0) {\r\n                employees[i] = employee_AccountDetails[employeeAddesses[i]];\r\n            }\r\n        }\r\n        if (employees.length > 1) {\r\n            sortEmployeesByTotalBounty(employees, int(employees.length -1), int(0));\r\n        }\r\n\r\n        if (numOfPerfCount == 0){\r\n            numOfPerfCount = TOP_PERFORMERS_COUNT;\r\n        }\r\n\r\n        uint8 counter = 0;\r\n        uint8 previousValue = 0;\r\n        Employee[] memory topPerformers;\r\n        for (uint8 j = 0; j < employees.length; j++) {\r\n            if (employees[j]._totalBounty != previousValue) {\r\n                if (counter == numOfPerfCount) {\r\n                break;\r\n                }\r\n                counter++;\r\n            }\r\n            topPerformers[j] = employees[j];\r\n            previousValue = employees[j]._totalBounty;\r\n        } \r\n        return topPerformers;\r\n    }\r\n\r\n\r\n    /**\r\n     * @notice - Sort employees based on bounties earned\r\n     *\r\n     * @param arr - address of the employee\r\n     * @param left - left pointer of array\r\n     * @param right - right pointer of array\r\n     */\r\n    function sortEmployeesByTotalBounty(Employee[] memory arr, int left, int right) view private {\r\n        int i = left;\r\n        int j = right;\r\n        if(i==j) return;\r\n        uint pivot = arr[uint(left + (right - left) / 2)]._totalBounty;\r\n        while (i >= j) {\r\n            while (arr[uint(i)]._totalBounty < pivot) i--;\r\n            while (pivot < arr[uint(j)]._totalBounty) j++;\r\n            if (i >= j) {\r\n                (arr[uint(j)], arr[uint(i)]) = (arr[uint(i)], arr[uint(j)]);\r\n                i--;\r\n                j++;\r\n            }\r\n        }\r\n        if (left > j)\r\n            sortEmployeesByTotalBounty(arr, left, j);\r\n        if (i > right)\r\n            sortEmployeesByTotalBounty(arr, i, right);\r\n    }\r\n\r\n\r\n    /**\r\n     * @notice - Quick load test data for testing\r\n     */\r\n    function loadTestData() public {\r\n        createEmployer(\"Google\");\r\n        \r\n        //Local\r\n        //addEmployee(parseAddr(\"\"), \"Ram\");\r\n        //addEmployee(parseAddr(\"\"), \"Sayan\");\r\n        //addEmployee(parseAddr(\"\"), \"Kaushik\");\r\n\r\n        //Injected\r\n        addEmployee(parseAddr(\"\"), \"Ram\");\r\n        addEmployee(parseAddr(\"\"), \"Sayan\");\r\n        addEmployee(parseAddr(\"\"), \"Kaushik\");\r\n\r\n        //createCourse(\"test1\", \"test1Desc\", \"https://www.youtube.com/watch?v=nUEBAS5r4Og\", 10);\r\n        //createCourse(\"test2\", \"test2Desc\", \"https://www.youtube.com/watch?v=aRJA1r1Gwu0\", 40);\r\n        //createCourse(\"test3\", \"test3Desc\", \"https://www.youtube.com/watch?v=aRJA1r1Gwu0\", 20);\r\n        //createCourse(\"test4\", \"test4Desc\", \"https://www.youtube.com/watch?v=aRJA1r1Gwu0\", 5);\r\n    }\r\n\r\n\r\n    /**\r\n     * @notice - Convert String to Address value\r\n     *\r\n     * @param _a - address value in string format\r\n     * @return _parsedAddress - address value in Address format\r\n     */\r\n    function parseAddr(string memory _a) internal pure returns (address _parsedAddress) {\r\n        bytes memory tmp = bytes(_a);\r\n        uint160 iaddr = 0;\r\n        uint160 b1;\r\n        uint160 b2;\r\n        for (uint i = 2; i < 2 + 2 * 20; i += 2) {\r\n            iaddr *= 256;\r\n            b1 = uint160(uint8(tmp[i]));\r\n            b2 = uint160(uint8(tmp[i + 1]));\r\n            if ((b1 >= 97) && (b1 <= 102)) {\r\n                b1 -= 87;\r\n            } else if ((b1 >= 65) && (b1 <= 70)) {\r\n                b1 -= 55;\r\n            } else if ((b1 >= 48) && (b1 <= 57)) {\r\n                b1 -= 48;\r\n            }\r\n            if ((b2 >= 97) && (b2 <= 102)) {\r\n                b2 -= 87;\r\n            } else if ((b2 >= 65) && (b2 <= 70)) {\r\n                b2 -= 55;\r\n            } else if ((b2 >= 48) && (b2 <= 57)) {\r\n                b2 -= 48;\r\n            }\r\n            iaddr += (b1 * 16 + b2);\r\n        }\r\n        return address(iaddr);\r\n    }\r\n\r\n}\r\n",
  "sourcePath": "/mnt/c/blockchainrepo/upload/kalvi-core/contracts/User.sol",
  "compiler": {
    "name": "solc",
    "version": "0.8.10+commit.fc410830.Emscripten.clang"
  },
  "schemaVersion": "3.4.4",
  "updatedAt": "2022-09-25T16:01:12.403Z",
  "networkType": "ethereum",
  "devdoc": {
    "kind": "dev",
    "methods": {
      "addEmployee(address,string)": {
        "params": {
          "_employeeAddress": "- The address of the employee.",
          "_employeeName": "- The username of the employee."
        }
      },
      "changeAccess(address)": {
        "params": {
          "_employeeAddress": "- The address of the employee."
        }
      },
      "completeCourse(uint8)": {
        "params": {
          "_courseId": "- course ID"
        },
        "returns": {
          "courseUrl": "- course URL"
        }
      },
      "createCourse(string,string,string,uint8,string,string)": {
        "params": {
          "_bounty": "- bounty for the course",
          "_cid": "- cid of the course",
          "_desc": "- description of the course",
          "_name": "- name of the course",
          "_url": "- url of the course"
        }
      },
      "fetchAssessmentQuestions(uint8)": {
        "params": {
          "courseID": "- ID of the course"
        },
        "returns": {
          "ipfsURL": "- IPFS file URL"
        }
      },
      "fetchCompletedCourses()": {
        "returns": {
          "_0": "courseList - list of courses  "
        }
      },
      "fetchCourses()": {
        "returns": {
          "courseList": "- list of courses  "
        }
      },
      "fetchIncompleteCourses()": {
        "returns": {
          "_0": "courseList - list of courses  "
        }
      },
      "getCourseStatus(uint8)": {
        "params": {
          "_courseId": "- course ID"
        },
        "returns": {
          "courseStatus": "- course status"
        }
      },
      "getTotalCourseBountyValue(address)": {
        "params": {
          "_employeeAddress": "- employee address"
        },
        "returns": {
          "totalBountyValue": "- total bounty value"
        }
      },
      "getUserName(address)": {
        "params": {
          "_address": "- The address of the user."
        }
      },
      "getUserType(address)": {
        "params": {
          "user": "- The address of the user."
        }
      }
    },
    "version": 1
  },
  "userdoc": {
    "kind": "user",
    "methods": {
      "addEmployee(address,string)": {
        "notice": "- This function is used to add a employee to the organization owned by an employer."
      },
      "changeAccess(address)": {
        "notice": "- This function is used to change the access of an employee."
      },
      "completeCourse(uint8)": {
        "notice": "- Complete course"
      },
      "createCourse(string,string,string,uint8,string,string)": {
        "notice": "- Creates course"
      },
      "createEmployer(string)": {
        "notice": "- This function is used to create a new employer/owner"
      },
      "deleteEmployee(address)": {
        "notice": "- This function is used to delete/make inactive an employee"
      },
      "fetchAssessmentQuestions(uint8)": {
        "notice": "- Fetch IPFS URL of course ID"
      },
      "fetchCompletedCourses()": {
        "notice": "- Fetch completed course list"
      },
      "fetchCourses()": {
        "notice": "- Fetch course list based on user type"
      },
      "fetchEmployees()": {
        "notice": "- This function is used to determine if the user is an employee of an organization."
      },
      "fetchIncompleteCourses()": {
        "notice": "- Fetch incompleted course list"
      },
      "getCourseStatus(uint8)": {
        "notice": "- Get course status"
      },
      "getTopPerformers(uint8)": {
        "notice": "- Fetches top performers based on total completion percentage"
      },
      "getTotalCourseBountyValue(address)": {
        "notice": "- Fetch total course bounty value"
      },
      "getUserName(address)": {
        "notice": "- This function is used to retrieve the username based on wallet address"
      },
      "getUserType(address)": {
        "notice": "- This function is used to determine the type of user 1 = employer. 2 = employee. 3 = unenrolled"
      },
      "loadTestData()": {
        "notice": "- Quick load test data for testing"
      }
    },
    "version": 1
  }
}