{
  "contractName": "App",
  "abi": [
    {
      "inputs": [
        {
          "internalType": "uint256",
          "name": "pContentCreatorId",
          "type": "uint256"
        },
        {
          "internalType": "string",
          "name": "pName",
          "type": "string"
        },
        {
          "internalType": "string",
          "name": "pDescription",
          "type": "string"
        },
        {
          "internalType": "uint8",
          "name": "pPrice",
          "type": "uint8"
        },
        {
          "internalType": "string",
          "name": "pTopic",
          "type": "string"
        },
        {
          "internalType": "uint256",
          "name": "pCreationDate",
          "type": "uint256"
        }
      ],
      "name": "createCourse",
      "outputs": [
        {
          "internalType": "bool",
          "name": "",
          "type": "bool"
        }
      ],
      "stateMutability": "nonpayable",
      "type": "function"
    },
    {
      "inputs": [
        {
          "internalType": "uint256",
          "name": "pContentCreatorId",
          "type": "uint256"
        }
      ],
      "name": "getCourses",
      "outputs": [
        {
          "components": [
            {
              "internalType": "uint256",
              "name": "id",
              "type": "uint256"
            },
            {
              "internalType": "uint256",
              "name": "contentCreatorId",
              "type": "uint256"
            },
            {
              "internalType": "string",
              "name": "name",
              "type": "string"
            },
            {
              "internalType": "string",
              "name": "description",
              "type": "string"
            },
            {
              "internalType": "uint8",
              "name": "price",
              "type": "uint8"
            },
            {
              "internalType": "string",
              "name": "topic",
              "type": "string"
            },
            {
              "internalType": "uint8",
              "name": "totalRating",
              "type": "uint8"
            },
            {
              "internalType": "uint8",
              "name": "ratingCount",
              "type": "uint8"
            },
            {
              "internalType": "uint256",
              "name": "creationDate",
              "type": "uint256"
            }
          ],
          "internalType": "struct App.ContentCreator_Course[]",
          "name": "ccCourse",
          "type": "tuple[]"
        }
      ],
      "stateMutability": "view",
      "type": "function",
      "constant": true
    }
  ],
  "bytecode": "0x608060405234801561001057600080fd5b50610ae5806100206000396000f3fe608060405234801561001057600080fd5b5060043610610052577c010000000000000000000000000000000000000000000000000000000060003504637405abaa8114610057578063f3c3ace814610080575b600080fd5b61006a61006536600461074e565b6100a3565b60405161007791906107b4565b60405180910390f35b61009361008e366004610967565b610313565b6040519015158152602001610077565b600081815260208181526040808320805482518185028101850190935280835260609492939192909184015b82821015610308578382906000526020600020906008020160405180610120016040529081600082015481526020016001820154815260200160028201805461011790610a1c565b80601f016020809104026020016040519081016040528092919081815260200182805461014390610a1c565b80156101905780601f1061016557610100808354040283529160200191610190565b820191906000526020600020905b81548152906001019060200180831161017357829003601f168201915b505050505081526020016003820180546101a990610a1c565b80601f01602080910402602001604051908101604052809291908181526020018280546101d590610a1c565b80156102225780601f106101f757610100808354040283529160200191610222565b820191906000526020600020905b81548152906001019060200180831161020557829003601f168201915b5050509183525050600482015460ff16602082015260058201805460409092019161024c90610a1c565b80601f016020809104026020016040519081016040528092919081815260200182805461027890610a1c565b80156102c55780601f1061029a576101008083540402835291602001916102c5565b820191906000526020600020905b8154815290600101906020018083116102a857829003601f168201915b5050509183525050600682015460ff80821660208085019190915261010090920416604083015260079092015460609091015290825260019290920191016100cf565b505050509050919050565b60008681526020818152604080832080548251818502810185019093528083528493849084015b82821015610573578382906000526020600020906008020160405180610120016040529081600082015481526020016001820154815260200160028201805461038290610a1c565b80601f01602080910402602001604051908101604052809291908181526020018280546103ae90610a1c565b80156103fb5780601f106103d0576101008083540402835291602001916103fb565b820191906000526020600020905b8154815290600101906020018083116103de57829003601f168201915b5050505050815260200160038201805461041490610a1c565b80601f016020809104026020016040519081016040528092919081815260200182805461044090610a1c565b801561048d5780601f106104625761010080835404028352916020019161048d565b820191906000526020600020905b81548152906001019060200180831161047057829003601f168201915b5050509183525050600482015460ff1660208201526005820180546040909201916104b790610a1c565b80601f01602080910402602001604051908101604052809291908181526020018280546104e390610a1c565b80156105305780601f1061050557610100808354040283529160200191610530565b820191906000526020600020905b81548152906001019060200180831161051357829003601f168201915b5050509183525050600682015460ff808216602080850191909152610100909204166040830152600790920154606090910152908252600192909201910161033a565b5050505090506000815160016105899190610a70565b604080516101208101825282815260208082018d81528284018d8152606084018d905260ff8c16608085015260a084018b9052600060c0850181905260e0850181905261010085018b90528f8152808452948520805460018181018355918752958490208551600890970201958655915191850191909155518051949550919384939261061d9260028501929101906106b5565b50606082015180516106399160038401916020909101906106b5565b50608082015160048201805460ff191660ff90921691909117905560a0820151805161066f9160058401916020909101906106b5565b5060c082015160068201805460e085015160ff90811661010090810261ffff19909316919094161717905590910151600790910155506001925050509695505050505050565b8280546106c190610a1c565b90600052602060002090601f0160209004810192826106e35760008555610729565b82601f106106fc57805160ff1916838001178555610729565b82800160010185558215610729579182015b8281111561072957825182559160200191906001019061070e565b50610735929150610739565b5090565b5b80821115610735576000815560010161073a565b60006020828403121561076057600080fd5b5035919050565b6000815180845260005b8181101561078d57602081850181015186830182015201610771565b8181111561079f576000602083870101525b50601f01601f19169290920160200192915050565b60208082528251828201819052600091906040908185019080840286018301878501865b8381101561089d57603f19898403018552815161012081518552888201518986015287820151818987015261080f82870182610767565b915050606080830151868303828801526108298382610767565b925050506080808301516108418288018260ff169052565b505060a0808301518683038288015261085a8382610767565b9250505060c0808301516108728288018260ff169052565b505060e08281015160ff169086015261010091820151919094015293860193908601906001016107d8565b509098975050505050505050565b7f4e487b7100000000000000000000000000000000000000000000000000000000600052604160045260246000fd5b600082601f8301126108eb57600080fd5b813567ffffffffffffffff80821115610906576109066108ab565b604051601f8301601f19908116603f0116810190828211818310171561092e5761092e6108ab565b8160405283815286602085880101111561094757600080fd5b836020870160208301376000602085830101528094505050505092915050565b60008060008060008060c0878903121561098057600080fd5b86359550602087013567ffffffffffffffff8082111561099f57600080fd5b6109ab8a838b016108da565b965060408901359150808211156109c157600080fd5b6109cd8a838b016108da565b95506060890135915060ff821682146109e557600080fd5b909350608088013590808211156109fb57600080fd5b50610a0889828a016108da565b92505060a087013590509295509295509295565b600281046001821680610a3057607f821691505b60208210811415610a6a577f4e487b7100000000000000000000000000000000000000000000000000000000600052602260045260246000fd5b50919050565b60008219821115610aaa577f4e487b7100000000000000000000000000000000000000000000000000000000600052601160045260246000fd5b50019056fea26469706673582212203d9440c5fc7eec01c7ca72024d0fb22154e66cdefaddabbeef4b14ea72058e8b64736f6c634300080a0033",
  "immutableReferences": {},
  "source": "// SPDX-License-Identifier: MIT OR Apache-2.0\r\npragma solidity ^0.8.0;\r\n\r\ninterface IERC20 {\r\n    function transfer(address recipient, uint256 amount)\r\n        external\r\n        returns (bool);\r\n}\r\n\r\ncontract App{\r\n\r\n\r\n\r\n    enum CourseStatus {\r\n        NOT_STARTED,\r\n        IN_PROGRESS,\r\n        COMPLETED\r\n    }\r\n\r\n    enum CourseModuleStatus {\r\n        NOT_STARTED,\r\n        IN_PROGRESS,\r\n        COMPLETED\r\n    }\r\n\r\n    enum RewardStatus {\r\n        RECEIVED,\r\n        NOT_RECEIVED,\r\n        ERROR\r\n    }\r\n\r\n    mapping(uint256 => ContentCreator_Course[]) courses;    // contentCreatorId-coursesList\r\n    mapping(uint256 => ContentCreator_CourseModule[]) modules;    // courseId-courseModulesList\r\n    mapping(uint256 => LearnerCourseStatus[]) courseStatus;    // learnerId-courseStatusList\r\n    mapping(uint256 => LearnerCourseModuleStatus[]) moduleStatus;    // learnerCourseId-courseModuleStatusList\r\n    mapping(uint256 => uint256[]) contentCreator_learnersList;  // content creator's learner list\r\n    mapping(uint256 => uint256[]) learner_contentCreatorList;   // learner's content creator list\r\n\r\n    struct ContentCreator_Course{\r\n        uint256 id;\r\n        uint256 contentCreatorId;\r\n        string name;\r\n        string description;\r\n        uint8 price;\r\n        string topic;\r\n        uint8 totalRating;\r\n        uint8 ratingCount;\r\n        uint256 creationDate;\r\n    }\r\n\r\n    struct ContentCreator_CourseModule{\r\n        uint256 id;\r\n        uint256 contentCreatorCourseId;\r\n        string name;\r\n        string description;\r\n        string videoURL;\r\n        string videoLength;\r\n        string questionnaireURL;\r\n        uint8 rewardPrice;\r\n        uint8 rewardValidity;\r\n        uint8 maxAttempts;\r\n        uint256 creationDate;\r\n    }\r\n\r\n    struct LearnerCourseStatus{\r\n        uint256 id;\r\n        uint256 learnerId;\r\n        uint256 courseId;\r\n        CourseStatus courseStatus;\r\n        bool isRatingProvided;\r\n        uint256 startDate;\r\n        uint256 endDate;\r\n        uint256 purchaseDate;\r\n    }\r\n\r\n    struct LearnerCourseModuleStatus{\r\n        uint256 id;\r\n        uint256 learnerId;\r\n        uint256 learnerCourseStatusId;\r\n        CourseModuleStatus courseModuleStatus;\r\n        uint8 attempts;\r\n        uint8 rewardPrice;\r\n        uint8 yourRewardPrice;\r\n        RewardStatus rewardStatus;\r\n        bool completedOnTime;\r\n        uint256 startDate;\r\n        uint256 endDate;\r\n    }\r\n\r\n    function createCourse(uint256 pContentCreatorId, \r\n                            string memory pName,\r\n                            string memory pDescription,\r\n                            uint8 pPrice,\r\n                            string memory pTopic,\r\n                            uint256 pCreationDate) public returns(bool){\r\n\r\n        //uint256 initialCoursesLength = courses[pContentCreatorId].length;\r\n        ContentCreator_Course[] memory ccCourses = courses[pContentCreatorId];\r\n        uint256 courseIndex = ccCourses.length + 1;\r\n        ContentCreator_Course memory newCourse = ContentCreator_Course({\r\n            id: courseIndex,\r\n            contentCreatorId: pContentCreatorId,\r\n            name: pName,\r\n            description: pDescription,\r\n            price: pPrice,\r\n            topic: pTopic,\r\n            totalRating: 0,\r\n            ratingCount: 0,\r\n            creationDate: pCreationDate\r\n        });\r\n        courses[pContentCreatorId].push(newCourse);\r\n\r\n        //return (initialCoursesLength != courses[pContentCreatorId].length);\r\n        return true;\r\n    }\r\n\r\n    function getCourses(uint256 pContentCreatorId) public view returns(ContentCreator_Course[] memory ccCourse){\r\n        return courses[pContentCreatorId];\r\n    }\r\n\r\n}",
  "sourcePath": "/mnt/c/blockchainrepo/upload/ed3zapp-core/contracts/App.sol",
  "compiler": {
    "name": "solc",
    "version": "0.8.10+commit.fc410830.Emscripten.clang"
  },
  "schemaVersion": "3.4.4",
  "updatedAt": "2022-09-19T21:03:32.171Z",
  "networkType": "ethereum",
  "devdoc": {
    "kind": "dev",
    "methods": {},
    "version": 1
  },
  "userdoc": {
    "kind": "user",
    "methods": {},
    "version": 1
  }
}