{
  "contractName": "CFALibraryMock",
  "abi": [
    {
      "inputs": [
        {
          "internalType": "contract ISuperfluid",
          "name": "host",
          "type": "address"
        }
      ],
      "stateMutability": "nonpayable",
      "type": "constructor"
    },
    {
      "inputs": [],
      "name": "cfaV1",
      "outputs": [
        {
          "internalType": "contract ISuperfluid",
          "name": "host",
          "type": "address"
        },
        {
          "internalType": "contract IConstantFlowAgreementV1",
          "name": "cfa",
          "type": "address"
        }
      ],
      "stateMutability": "view",
      "type": "function"
    }
  ],
  "bytecode": "0x608060405234801561001057600080fd5b5060405161024238038061024283398101604081905261002f9161013a565b604080518082018252600160a060020a03831680825291517fb6d200de0000000000000000000000000000000000000000000000000000000081527fa9214cc96615e0085d3bb077758db69497dc2dce3b2b1e97bc93c3d18d83efd360048201529091602083019163b6d200de90602401602060405180830381865afa1580156100bd573d6000803e3d6000fd5b505050506040513d601f19601f820116820180604052508101906100e1919061013a565b600160a060020a03908116909152815160008054600160a060020a03199081169284169290921790556020909201516001805490931691161790555061015e565b600160a060020a038116811461013757600080fd5b50565b60006020828403121561014c57600080fd5b815161015781610122565b9392505050565b60d68061016c6000396000f3fe6080604052348015600f57600080fd5b50600436106044577c01000000000000000000000000000000000000000000000000000000006000350463d3112b2e81146049575b600080fd5b600054600154606f9173ffffffffffffffffffffffffffffffffffffffff908116911682565b6040805173ffffffffffffffffffffffffffffffffffffffff93841681529290911660208301520160405180910390f3fea264697066735822122072a730762e35edeefd4a88d1a92d4b8062643f7b86bc8bbd2930f58c47fe1d2364736f6c634300080d0033",
  "immutableReferences": {},
  "source": "// SPDX-License-Identifier: MIT\r\npragma solidity ^0.8.13;\r\n\r\nimport {ISuperfluid } from \"@superfluid-finance/ethereum-contracts/contracts/interfaces/superfluid/ISuperfluid.sol\";\r\n\r\nimport { \r\n    IConstantFlowAgreementV1 \r\n} from \"@superfluid-finance/ethereum-contracts/contracts/interfaces/agreements/IConstantFlowAgreementV1.sol\";\r\n\r\nimport {\r\n    CFAv1Library\r\n} from \"@superfluid-finance/ethereum-contracts/contracts/apps/CFAv1Library.sol\";\r\n\r\ncontract CFALibraryMock {\r\n\r\n    using CFAv1Library for CFAv1Library.InitData;\r\n    \r\n    //initialize cfaV1 variable\r\n    CFAv1Library.InitData public cfaV1;\r\n    \r\n    constructor(\r\n        ISuperfluid host\r\n    ) {\r\n    \r\n    //initialize InitData struct, and set equal to cfaV1\r\n    cfaV1 = CFAv1Library.InitData(\r\n        host,\r\n        //here, we are deriving the address of the CFA using the host contract\r\n        IConstantFlowAgreementV1(\r\n            address(host.getAgreementClass(\r\n                    keccak256(\"org.superfluid-finance.agreements.ConstantFlowAgreement.v1\")\r\n                ))\r\n            )\r\n        );\r\n    }\r\n    \r\n    //your contract code here...\r\n}",
  "sourcePath": "/mnt/c/blockchainrepo/upload/ed3zapp-core/contracts/CFALibraryMock.sol",
  "compiler": {
    "name": "solc",
    "version": "0.8.13+commit.abaa5c0e.Emscripten.clang"
  },
  "schemaVersion": "3.4.4",
  "updatedAt": "2022-09-20T19:53:09.777Z",
  "devdoc": {
    "kind": "dev",
    "methods": {},
    "version": 1
  },
  "userdoc": {
    "kind": "user",
    "methods": {},
    "version": 1
  }
}