{
  "contractName": "Purchase",
  "abi": [
    {
      "inputs": [
        {
          "internalType": "contract ISuperfluid",
          "name": "host",
          "type": "address"
        }
      ],
      "stateMutability": "nonpayable",
      "type": "constructor"
    },
    {
      "inputs": [],
      "name": "USDc",
      "outputs": [
        {
          "internalType": "contract USDC",
          "name": "",
          "type": "address"
        }
      ],
      "stateMutability": "view",
      "type": "function",
      "constant": true
    },
    {
      "inputs": [],
      "name": "cfaV1",
      "outputs": [
        {
          "internalType": "contract ISuperfluid",
          "name": "host",
          "type": "address"
        },
        {
          "internalType": "contract IConstantFlowAgreementV1",
          "name": "cfa",
          "type": "address"
        }
      ],
      "stateMutability": "view",
      "type": "function",
      "constant": true
    },
    {
      "inputs": [
        {
          "internalType": "address",
          "name": "",
          "type": "address"
        }
      ],
      "name": "stakingBalance",
      "outputs": [
        {
          "internalType": "uint256",
          "name": "",
          "type": "uint256"
        }
      ],
      "stateMutability": "view",
      "type": "function",
      "constant": true
    },
    {
      "inputs": [
        {
          "internalType": "uint256",
          "name": "$USDC",
          "type": "uint256"
        },
        {
          "internalType": "address",
          "name": "contentCreator",
          "type": "address"
        },
        {
          "internalType": "int96",
          "name": "flowRate",
          "type": "int96"
        },
        {
          "internalType": "bool",
          "name": "isNewStream",
          "type": "bool"
        },
        {
          "internalType": "int96",
          "name": "updatedFlowRate",
          "type": "int96"
        }
      ],
      "name": "buyCourse",
      "outputs": [],
      "stateMutability": "nonpayable",
      "type": "function"
    },
    {
      "inputs": [
        {
          "internalType": "uint256",
          "name": "bounty",
          "type": "uint256"
        }
      ],
      "name": "claimReward",
      "outputs": [],
      "stateMutability": "nonpayable",
      "type": "function"
    }
  ],
  "bytecode": "0x608060405234801561001057600080fd5b50604051610c58380380610c5883398101604081905261002f9161016e565b60008054600160a060020a031990811673be49ac1eadac65dccf204d4df81d650b50122ab2179091556001805490911633179055604080518082018252600160a060020a03831680825291517fb6d200de0000000000000000000000000000000000000000000000000000000081527fa9214cc96615e0085d3bb077758db69497dc2dce3b2b1e97bc93c3d18d83efd360048201529091602083019163b6d200de90602401602060405180830381865afa1580156100f1573d6000803e3d6000fd5b505050506040513d601f19601f82011682018060405250810190610115919061016e565b600160a060020a03908116909152815160038054600160a060020a031990811692841692909217905560209092015160048054909316911617905550610192565b600160a060020a038116811461016b57600080fd5b50565b60006020828403121561018057600080fd5b815161018b81610156565b9392505050565b610ab7806101a16000396000f3fe608060405234801561001057600080fd5b5060043610610084576000357c010000000000000000000000000000000000000000000000000000000090048063afcc4ad51161006d578063afcc4ad5146100d1578063d3112b2e14610116578063fceb57ff1461016a57600080fd5b806345bc78ab14610089578063ae169a50146100bc575b600080fd5b6100a961009736600461072d565b60026020526000908152604090205481565b6040519081526020015b60405180910390f35b6100cf6100ca36600461074f565b61017d565b005b6000546100f19073ffffffffffffffffffffffffffffffffffffffff1681565b60405173ffffffffffffffffffffffffffffffffffffffff90911681526020016100b3565b60035460045461013d9173ffffffffffffffffffffffffffffffffffffffff908116911682565b6040805173ffffffffffffffffffffffffffffffffffffffff9384168152929091166020830152016100b3565b6100cf61017836600461078b565b6102cb565b33600090815260026020526040812054906101a083670de0b6b3a764000061081a565b905060008211610210576040517f08c379a000000000000000000000000000000000000000000000000000000000815260206004820152601b60248201527f7374616b696e672062616c616e63652063616e6e6f7420626520300000000000604482015260640160405180910390fd5b6000546040517fa9059cbb0000000000000000000000000000000000000000000000000000000081523360048201526024810183905273ffffffffffffffffffffffffffffffffffffffff9091169063a9059cbb906044016020604051808303816000875af1158015610287573d6000803e3d6000fd5b505050506040513d601f19601f820116820180604052508101906102ab9190610839565b506102b68183610856565b33600090815260026020526040902055505050565b60006102df86670de0b6b3a764000061081a565b905060006102ee60028361086d565b905060006102fd60028461086d565b6000546040517f23b872dd0000000000000000000000000000000000000000000000000000000081523360048201523060248201526044810185905291925073ffffffffffffffffffffffffffffffffffffffff16906323b872dd906064016020604051808303816000875af115801561037b573d6000803e3d6000fd5b505050506040513d601f19601f8201168201806040525081019061039f9190610839565b50336000908152600260205260409020546103bb9083906108a8565b33600090815260026020526040808220929092555490517f095ea7b30000000000000000000000000000000000000000000000000000000081527342bb40bf79730451b11f6de1cba222f17b87afd760048201526024810183905273ffffffffffffffffffffffffffffffffffffffff9091169063095ea7b3906044016020604051808303816000875af1158015610457573d6000803e3d6000fd5b505050506040513d601f19601f8201168201806040525081019061047b9190610839565b506040517f45977d03000000000000000000000000000000000000000000000000000000008152600481018290527342bb40bf79730451b11f6de1cba222f17b87afd7906345977d0390602401600060405180830381600087803b1580156104e257600080fd5b505af11580156104f6573d6000803e3d6000fd5b505050508415610526576105216003887342bb40bf79730451b11f6de1cba222f17b87afd789610551565b610547565b6105476003887342bb40bf79730451b11f6de1cba222f17b87afd787610577565b5050505050505050565b604080516000815260208101909152610571908590859085908590610597565b50505050565b6040805160008152602081019091526105719085908590859085906106cd565b8454600186015473ffffffffffffffffffffffffffffffffffffffff918216916339255d5b9116806362fc305e87898860005b6040519080825280601f01601f1916602001820160405280156105f4576020820181803683370190505b506040516024016106089493929190610947565b60408051601f198184030181529181526020820180517bffffffffffffffffffffffffffffffffffffffffffffffffffffffff167c01000000000000000000000000000000000000000000000000000000009485021790525163ffffffff8616909202825261067e939250908690600401610993565b6000604051808303816000875af115801561069d573d6000803e3d6000fd5b505050506040513d6000823e601f3d908101601f191682016040526106c591908101906109d4565b505050505050565b8454600186015473ffffffffffffffffffffffffffffffffffffffff918216916339255d5b9116806350209a6287898860006105ca565b803573ffffffffffffffffffffffffffffffffffffffff8116811461072857600080fd5b919050565b60006020828403121561073f57600080fd5b61074882610704565b9392505050565b60006020828403121561076157600080fd5b5035919050565b8035600b81900b811461072857600080fd5b801515811461078857600080fd5b50565b600080600080600060a086880312156107a357600080fd5b853594506107b360208701610704565b93506107c160408701610768565b925060608601356107d18161077a565b91506107df60808701610768565b90509295509295909350565b7f4e487b7100000000000000000000000000000000000000000000000000000000600052601160045260246000fd5b6000816000190483118215151615610834576108346107eb565b500290565b60006020828403121561084b57600080fd5b81516107488161077a565b600082821015610868576108686107eb565b500390565b6000826108a3577f4e487b7100000000000000000000000000000000000000000000000000000000600052601260045260246000fd5b500490565b600082198211156108bb576108bb6107eb565b500190565b7f4e487b7100000000000000000000000000000000000000000000000000000000600052604160045260246000fd5b60005b8381101561090a5781810151838201526020016108f2565b838111156105715750506000910152565b600081518084526109338160208601602086016108ef565b601f01601f19169290920160200192915050565b600073ffffffffffffffffffffffffffffffffffffffff808716835280861660208401525083600b0b604083015260806060830152610989608083018461091b565b9695505050505050565b73ffffffffffffffffffffffffffffffffffffffff841681526060602082015260006109c2606083018561091b565b8281036040840152610989818561091b565b6000602082840312156109e657600080fd5b815167ffffffffffffffff808211156109fe57600080fd5b818401915084601f830112610a1257600080fd5b815181811115610a2457610a246108c0565b604051601f8201601f19908116603f01168101908382118183101715610a4c57610a4c6108c0565b81604052828152876020848701011115610a6557600080fd5b610a768360208301602088016108ef565b97965050505050505056fea2646970667358221220f74e9d5a88a64e20b6927664ac09a221548712c0ebb39ad68b43704fe237f64064736f6c634300080d0033",
  "immutableReferences": {},
  "source": "// SPDX-License-Identifier: MIT\r\npragma solidity ^0.8.13;\r\n\r\nimport {ISuperfluid } from \"@superfluid-finance/ethereum-contracts/contracts/interfaces/superfluid/ISuperfluid.sol\";\r\n\r\nimport { IConstantFlowAgreementV1 } from \"@superfluid-finance/ethereum-contracts/contracts/interfaces/agreements/IConstantFlowAgreementV1.sol\";\r\n\r\nimport { ISuperToken } from \"@superfluid-finance/ethereum-contracts/contracts/interfaces/superfluid/ISuperToken.sol\";\r\n\r\nimport {\r\n    CFAv1Library\r\n} from \"@superfluid-finance/ethereum-contracts/contracts/apps/CFAv1Library.sol\";\r\n\r\ninterface USDC {\r\n\r\n    function balanceOf(address account) external view returns (uint256);\r\n    function allowance(address owner, address spender) external view returns (uint256);\r\n\r\n    function transfer(address recipient, uint256 amount) external returns (bool);\r\n    function approve(address spender, uint256 amount) external returns (bool);\r\n    function transferFrom(address sender, address recipient, uint256 amount) external returns (bool);\r\n\r\n}\r\n\r\ncontract Purchase {\r\n    USDC public USDc;\r\n    address owner;\r\n    mapping(address => uint) public stakingBalance;\r\n    using CFAv1Library for CFAv1Library.InitData;\r\n    //initialize cfaV1 variable\r\n    CFAv1Library.InitData public cfaV1;\r\n\r\n    constructor( ISuperfluid host ) {\r\n        USDc = USDC(0xbe49ac1EadAc65dccf204D4Df81d650B50122aB2);\r\n        owner = msg.sender;\r\n\r\n        //initialize InitData struct, and set equal to cfaV1\r\n            //initialize InitData struct, and set equal to cfaV1\r\n        cfaV1 = CFAv1Library.InitData( host,\r\n        //here, we are deriving the address of the CFA using the host contract\r\n        IConstantFlowAgreementV1(\r\n            address(host.getAgreementClass(\r\n                    keccak256(\"org.superfluid-finance.agreements.ConstantFlowAgreement.v1\")\r\n                ))\r\n            )\r\n        );\r\n       \r\n    }\r\n\r\n            \r\n    function buyCourse(uint $USDC, address contentCreator, int96 flowRate,  bool isNewStream, int96 updatedFlowRate) public {\r\n\r\n        // amount should be > 0\r\n        uint256 totalAmount = $USDC * 10 ** 18;\r\n        uint256 platformAmount = totalAmount/2;\r\n        uint256 contentCreatorAmount = totalAmount/2;\r\n\r\n        // transfer USDC to this contract\r\n        USDc.transferFrom(msg.sender, address(this), platformAmount);\r\n\r\n        // update staking balance\r\n        stakingBalance[msg.sender] = stakingBalance[msg.sender] + platformAmount;\r\n\r\n        //To do flow Wrap USDCx\r\n        //Upgrading USDC to USDCx super token   \r\n\r\n        //address public superTokenAddress = 0x42bb40bF79730451B11f6De1CbA222F17b87Afd7;\r\n        \r\n        // approving\r\n        USDc.approve(0x42bb40bF79730451B11f6De1CbA222F17b87Afd7, contentCreatorAmount);\r\n\r\n        // wrapping\r\n        ISuperToken(0x42bb40bF79730451B11f6De1CbA222F17b87Afd7).upgrade(contentCreatorAmount);\r\n\r\n        //contentCreator\r\n        //ISuperToken(0x42bb40bF79730451B11f6De1CbA222F17b87Afd7).transfer(contentCreator, contentCreatorAmount);\r\n\r\n        // CFA CRUD functionality\r\n        //cfaV1.createFlow(receiver, token, flowRate);\r\n        //Flowrate to be calculated from the frontend\r\n        //int96 flowRate = 20000000000000;\r\n        //Need to check existing flow before creating new one, should invoke updateFlow incase flow already exist\r\n        //Check can be done by using graph\r\n\r\n        if(isNewStream) {\r\n            cfaV1.createFlow(contentCreator, ISuperToken(0x42bb40bF79730451B11f6De1CbA222F17b87Afd7), flowRate);\r\n        }\r\n        else {\r\n            cfaV1.updateFlow(contentCreator, ISuperToken(0x42bb40bF79730451B11f6De1CbA222F17b87Afd7), updatedFlowRate);\r\n        }\r\n        \r\n\r\n    }\r\n\r\n    // Unstaking Tokens (Withdraw)\r\n    function claimReward(uint bounty) public {\r\n        uint balance = stakingBalance[msg.sender];\r\n\r\n        uint bountywei = bounty * 10 ** 18;\r\n\r\n        // balance should be > 0\r\n        require (balance > 0, \"staking balance cannot be 0\");\r\n\r\n        // Transfer USDC tokens to the users wallet\r\n        USDc.transfer(msg.sender, bountywei);\r\n\r\n        // decrease balance after sending reward\r\n        stakingBalance[msg.sender] = balance - bountywei;\r\n    }\r\n\r\n}",
  "sourcePath": "/mnt/c/blockchainrepo/upload/ed3zapp-core/contracts/Purchase.sol",
  "compiler": {
    "name": "solc",
    "version": "0.8.13+commit.abaa5c0e.Emscripten.clang"
  },
  "schemaVersion": "3.4.4",
  "updatedAt": "2022-09-24T16:24:57.360Z",
  "networkType": "ethereum",
  "devdoc": {
    "kind": "dev",
    "methods": {},
    "version": 1
  },
  "userdoc": {
    "kind": "user",
    "methods": {},
    "version": 1
  }
}